:100000000C945D000C9485000C9485000C94850084
:100010000C9485000C9485000C9485000C9485004C
:100020000C9485000C9485000C9485000C9485003C
:100030000C9485000C9485000C9485000C9485002C
:100040000C9460030C9485000C942E030C9408030C
:100050000C9485000C9485000C9485000C9485000C
:100060000C9485000C9485000000000024002700FB
:100070002A0000000000250028002B0004040404CE
:100080000404040402020202020203030303030342
:10009000010204081020408001020408102001021F
:1000A00004081020000000080002010000030407FB
:1000B0000000000000000000AA0311241FBECFEFC3
:1000C000D8E0DEBFCDBF11E0A0E0B1E0E6EBF0E1AB
:1000D00002C005900D92A432B107D9F721E0A4E245
:1000E000B1E001C01D92A93DB207E1F710E0CDE5F6
:1000F000D0E004C02197FE010E944E08CC35D10704
:10010000C9F70E94E4030C9459080C940000CF92A4
:10011000DF92EF92FF920F931F93CF93DF936C01C7
:100120007A018B01C0E0D0E0CE15DF0581F0D80167
:100130006D918D01D601ED91FC910190F081E02D42
:10014000C6010995892B11F02196EECF7E01C701DA
:10015000DF91CF911F910F91FF90EF90DF90CF90A3
:100160000895089580E090E00895FC01538D448D3A
:10017000252F30E0842F90E0821B930B541710F052
:10018000CF96089501970895FC01918D828D98175F
:1001900061F0828DDF01A80FB11D5D968C91928D6B
:1001A0009F5F9F73928F90E008958FEF9FEF089568
:1001B000FC01918D828D981731F0828DE80FF11D31
:1001C000858D90E008958FEF9FEF0895FC01918D4C
:1001D000228D892F90E0805C9F4F821B91098F7345
:1001E0009927089581E391E00E94E60021E0892BA0
:1001F00009F420E0822F0895FC01848DDF01A80F0F
:10020000B11DA35ABF4F2C91848D90E001968F733E
:100210009927848FA689B7892C93A089B1898C915D
:10022000837080648C93938D848D981306C00288AC
:10023000F389E02D80818F7D80830895EF92FF9276
:100240000F931F93CF93DF93EC0181E0888F9B8DF9
:100250008C8D981305C0E889F989808185FD26C0B9
:10026000F62E0B8D10E00F5F1F4F0F731127E02E3E
:100270008C8DE8120CC00FB607FCFACFE889F9891B
:10028000808185FFF5CFCE010E94FC00F1CF8B8DE0
:10029000FE01E80FF11DE35AFF4FF0829FB7F8947B
:1002A0000B8FEA89FB89808180620AC09FB7F8942E
:1002B000EE89FF896083E889F98980818370806491
:1002C00080839FBF81E090E0DF91CF911F910F91DC
:1002D000FF90EF900895CF93DF93EC01888D8823F2
:1002E000C9F0EA89FB89808185FD05C0A889B989A3
:1002F0008C9186FD0FC00FB607FCF5CF808185FF7E
:10030000F2CFA889B9898C9185FFEDCFCE010E94EB
:10031000FC00E7CFDF91CF91089580E090E0892B3A
:1003200029F00E94F20081110C94000008958E3093
:1003300008F08E508770806480937C0080917A00F2
:10034000806480937A0080917A0086FDFCCF809152
:1003500078002091790090E0922B08953FB7F894AF
:100360008091290190912A01A0912B01B0912C013B
:1003700026B5A89B05C02F3F19F00196A11DB11D00
:100380003FBFBA2FA92F982F8827820F911DA11D3B
:10039000B11DBC01CD0142E0660F771F881F991F78
:1003A0004A95D1F70895009769F0FC01019000206B
:1003B000E9F73197AF01481B590BBC0181E391E08C
:1003C0000C94870080E090E008952F923F924F9226
:1003D0005F926F927F928F929F92AF92BF92CF92D5
:1003E000DF92EF92FF920F931F93CF93DF93CDB7DE
:1003F000DEB7A4970FB6F894DEBF0FBECDBF4B019A
:100400005C01F42E9B01AC010E942708882319F09F
:1004100082E191E027C024013501E89477F82FEFBD
:100420003FEF4FE75FE7C301B2010E942708811148
:100430000DC02FEF3FEF4FE75FE7C301B2010E940E
:100440005D0618161CF486E191E00CC02FEF3FEF1B
:100450004FE75FE4C501B4010E94B50718162CF4FC
:100460008AE191E00E94D301B8C02FEF3FEF4FE740
:100470005FECC501B4010E945D0687FDF1CF20E06D
:1004800030E0A901C501B4010E945D0687FF0BC0E1
:100490006DE281E391E00E941E013C01B7FAB09445
:1004A000B7F8B09402C0612C712C10E060E070E0ED
:1004B00080E09FE3F11641F020E030E040E251E4BB
:1004C0000E9462061F5FF6CFA50194010E94F1050C
:1004D0004B015C010E94D4066AA3C72ED82EE92ED8
:1004E00019A2262F372F482F592F8E010F5D1F4F2E
:1004F0000BA31CA39AE0292E312C412C512CCA01AC
:10050000B901A20191010E942C08605DF80162937B
:100510008F01211531054105510589F7CF010E9451
:10052000D3018301080F191FFF2009F455C06AA1E8
:100530007C2D8D2D9E2D0E9403079B01AC01C501D2
:10054000B4010E94F0054B015C016EE281E391E091
:100550000E941E01080F191F8AE0282E312C412C01
:10056000512C20E030E040E251E4C501B4010E948A
:10057000BA074B015C010E94D4069B0140E050E0A9
:1005800019A2CBA0DCA0762E3AA3642EE52ECA01D8
:10059000B901A20191010E942C08605DF6016293ED
:1005A0006F01211531054105510589F7CF010E94E1
:1005B000D301080F191F672D7AA1862D9E2D0E9449
:1005C00003079B01AC01C501B4010E94F0054B017A
:1005D0005C01FA94F110C5CFC801A4960FB6F89447
:1005E000DEBF0FBECDBFDF91CF911F910F91FF9066
:1005F000EF90DF90CF90BF90AF909F908F907F90C3
:100600006F905F904F903F902F9008950E945408F4
:100610001F920F920FB60F9211242F933F934F9377
:100620005F936F937F938F939F93AF93BF93EF935A
:10063000FF9381E391E00E94FC00FF91EF91BF9155
:10064000AF919F918F917F916F915F914F913F916A
:100650002F910F900FBE0F901F9018951F920F9221
:100660000FB60F9211242F938F939F93EF93FF93C5
:10067000E0914101F09142018081E0914701F091C8
:10068000480182FD12C0908180914A018F5F8F7373
:1006900020914B01821751F0E0914A01F0E0EF5CAC
:1006A000FE4F958F80934A0101C08081FF91EF91A9
:1006B0009F918F912F910F900FBE0F901F901895C3
:1006C0001F920F920FB60F9211242F933F938F9387
:1006D0009F93AF93BF938091250190912601A091A4
:1006E0002701B09128013091240123E0230F2D37F9
:1006F00020F40196A11DB11D05C026E8230F029626
:10070000A11DB11D20932401809325019093260102
:10071000A0932701B09328018091290190912A018B
:10072000A0912B01B0912C010196A11DB11D8093C8
:10073000290190932A01A0932B01B0932C01BF9122
:10074000AF919F918F913F912F910F900FBE0F907E
:100750001F901895E1E3F1E01382128288EE93E096
:10076000A0E0B0E084839583A683B78384E091E022
:100770009183808385EC90E09587848784EC90E07A
:100780009787868780EC90E0918B808B81EC90E05E
:10079000938B828B82EC90E0958B848B86EC90E03F
:1007A000978B868B118E128E138E148EEEECF1E0E9
:1007B000118210821282138214821582168217828D
:1007C0001086118612860895CF93DF93CDB7DEB7DA
:1007D00028970FB6F894DEBF0FBECDBF789484B5CE
:1007E000826084BD84B5816084BD85B5826085BD2D
:1007F00085B5816085BD80916E00816080936E00BB
:1008000010928100809181008260809381008091AC
:10081000810081608093810080918000816080935D
:1008200080008091B10084608093B1008091B0001D
:1008300081608093B00080917A00846080937A0018
:1008400080917A00826080937A0080917A00816042
:1008500080937A0080917A00806880937A00109269
:10086000C10080E00E949701BC01990F880B990B91
:100870000E94050720E030E040EF51E40E94BA07F3
:1008800020E030E040E85AE30E94BA0720E030E080
:1008900040EA51E40E94F1056B017C011092CF0106
:1008A0001092CE0120E030E040E85FE30E94F005C6
:1008B0006093D5017093D6018093D7019093D801AE
:1008C00020E030E040E85FE3C701B6010E94F10597
:1008D0006093D1017093D2018093D3019093D4019E
:1008E00081E08093D0014CE9242E40E0342EF101C8
:1008F0002491E8E8F0E08491882399F090E0880F53
:10090000991FFC01E859FF4FA591B491FC01EE58E5
:10091000FF4F859194919FB7F8948C91822B8C9383
:100920009FBFE0914101F091420182E08083E0911C
:100930003D01F0913E011082E0913F01F0914001B4
:1009400080E1808310924901E0914501F0914601D8
:1009500086E08083E0914301F091440180818061D1
:100960008083E0914301F09144018081886080831D
:10097000E0914301F0914401808180688083E0919F
:100980004301F091440180818F7D80830E94AE01FC
:100990006B017C0198EE892E93E0992EA12CB12C4D
:1009A0000E94AE01DC01CB018C199D09AE09BF0983
:1009B000883E9340A105B10598F3F1E08F1A9108A4
:1009C000A108B10828EEC20E23E0D21EE11CF11CE2
:1009D00081149104A104B10419F780E00E949701E9
:1009E000BC01990F880B990B0E94050720E030E0AD
:1009F00040EF51E40E94BA0720E030E040E85AE3BB
:100A00000E94BA0720E030E040EA51E40E94F1057C
:100A10006B017C0120E030E040E85FE30E94F005DC
:100A200069837A838B839C8320E030E040E85FE336
:100A3000C701B6010E94F1056D837E838F8398877D
:100A400081E00E949701BC01990F880B990B0E94CD
:100A5000050720E93EE34AEF5EE30E94BA076B0117
:100A60007C0160932D0170932E0180932F01909350
:100A700030018090D5019090D601A090D701B09020
:100A8000D8014090D1015090D2016090D301709074
:100A9000D4018091CE019091CF010097A1F00197F0
:100AA00071F5A7019601C501B4010E94B50718169A
:100AB0001CF18091D001882309F111E0A30192017A
:100AC000C701B60111C0A3019201C701B6010E947E
:100AD000B50718168CF08091D001882379F011E0C9
:100AE000A7019601C501B4010E94B50718160CF0C4
:100AF00010E081E0182703C011E001C010E010935E
:100B0000D001E0EBF0E08491F1019491E8E8F0E0AD
:100B10002491222309F43CC0882339F1833091F0D9
:100B200038F48130A9F0823001F584B58F7D12C090
:100B3000873091F08830A1F08430B9F48091800042
:100B40008F7D03C0809180008F77809380000DC0DF
:100B500084B58F7784BD09C08091B0008F7703C0C2
:100B60008091B0008F7D8093B000E22FF0E0EE0F17
:100B7000FF1FEE58FF4FA591B4912FB7F8948C91B9
:100B8000111103C09095982301C0982B9C932FBFFF
:100B900041E069817A818B819C810E94E5018EE12F
:100BA00091E00E94D30141E06D817E818F81988523
:100BB0000E94E5018EE191E00E94D30160912D0138
:100BC00070912E0180912F019091300141E00E949F
:100BD000E50181E291E00E94D3010E948D01D6CE11
:100BE0005058BB27AA270E9408060C947B070E9436
:100BF0006D0738F00E94740720F039F49F3F19F414
:100C000026F40C946A070EF4E095E7FB0C94640755
:100C1000E92F0E948C0758F3BA17620773078407FD
:100C2000950720F079F4A6F50C94AE070EF4E09544
:100C30000B2EBA2FA02D0B01B90190010C01CA0196
:100C4000A0011124FF27591B99F0593F50F4503E41
:100C500068F11A16F040A22F232F342F4427585F33
:100C6000F3CF469537952795A795F0405395C9F74B
:100C70007EF41F16BA0B620B730B840BBAF0915003
:100C8000A1F0FF0FBB1F661F771F881FC2F70EC0A2
:100C9000BA0F621F731F841F48F487957795679575
:100CA000B795F7959E3F08F0B0CF9395880F08F061
:100CB0009927EE0F9795879508950E94400708F4AD
:100CC00081E008950E9476060C947B070E947407C9
:100CD00058F00E946D0740F029F45F3F29F00C9412
:100CE000640751110C94AF070C946A070E948C079B
:100CF00068F39923B1F3552391F3951B550BBB274B
:100D0000AA2762177307840738F09F5F5F4F220F8F
:100D1000331F441FAA1FA9F335D00E2E3AF0E0E886
:100D200032D091505040E695001CCAF72BD0FE2FD0
:100D300029D0660F771F881FBB1F26173707480764
:100D4000AB07B0E809F0BB0B802DBF01FF2793581C
:100D50005F4F3AF09E3F510578F00C9464070C9475
:100D6000AF075F3FE4F3983ED4F386957795679598
:100D7000B795F7959F5FC9F7880F911D9695879551
:100D800097F90895E1E0660F771F881FBB1F621770
:100D900073078407BA0720F0621B730B840BBA0B2E
:100DA000EE1F88F7E09508950E94940788F09F57FA
:100DB00098F0B92F9927B751B0F0E1F0660F771F7F
:100DC000881F991F1AF0BA95C9F714C0B13091F075
:100DD0000E94AE07B1E008950C94AE07672F782FFC
:100DE0008827B85F39F0B93FCCF38695779567953A
:100DF000B395D9F73EF490958095709561957F4FA6
:100E00008F4F9F4F0895E89409C097FB3EF490954B
:100E10008095709561957F4F8F4F9F4F9923A9F0D3
:100E2000F92F96E9BB279395F69587957795679562
:100E3000B795F111F8CFFAF4BB0F11F460FF1BC0A6
:100E40006F5F7F4F8F4F9F4F16C0882311F096E939
:100E500011C0772321F09EE8872F762F05C06623E7
:100E600071F096E8862F70E060E02AF09A95660FA0
:100E7000771F881FDAF7880F9695879597F9089559
:100E8000990F0008550FAA0BE0E8FEEF161617069B
:100E9000E807F907C0F012161306E407F50798F003
:100EA000621B730B840B950B39F40A2661F0232B1C
:100EB000242B252B21F408950A2609F4A140A69598
:100EC0008FEF811D811D089597F99F6780E870E07D
:100ED00060E008959FEF80EC089500240A941616B0
:100EE000170618060906089500240A941216130618
:100EF000140605060895092E0394000C11F48823A6
:100F000052F0BB0F40F4BF2B11F460FF04C06F5FC1
:100F10007F4F8F4F9F4F089557FD9058440F551F97
:100F200059F05F3F71F04795880F97FB991F61F06B
:100F30009F3F79F087950895121613061406551FE2
:100F4000F2CF4695F1DF08C0161617061806991F4E
:100F5000F1CF86957105610508940895E894BB2743
:100F600066277727CB0197F908950E94400708F478
:100F70008FEF08950E94CD070C947B070E946D07A8
:100F800038F00E94740720F0952311F00C94640748
:100F90000C946A0711240C94AF070E948C0770F31D
:100FA000959FC1F3950F50E0551F629FF001729F0E
:100FB000BB27F00DB11D639FAA27F00DB11DAA1F1D
:100FC000649F6627B00DA11D661F829F2227B00D6A
:100FD000A11D621F739FB00DA11D621F839FA00DF5
:100FE000611D221F749F3327A00D611D231F849F45
:100FF000600D211D822F762F6A2F11249F5750409C
:101000009AF0F1F088234AF0EE0FFF1FBB1F661F16
:10101000771F881F91505040A9F79E3F510580F0DF
:101020000C9464070C94AF075F3FE4F3983ED4F34D
:10103000869577956795B795F795E7959F5FC1F783
:10104000FE2B880F911D9695879597F908950E941C
:101050004007880B990B0895A1E21A2EAA1BBB1B0F
:10106000FD010DC0AA1FBB1FEE1FFF1FA217B30774
:10107000E407F50720F0A21BB30BE40BF50B661F8A
:10108000771F881F991F1A9469F76095709580954E
:1010900090959B01AC01BD01CF010895EE0FFF1F9C
:1010A0000590F491E02D099481E090E0F8940C947F
:0610B0005908F894FFCF7F
:1010B600000000001E018700B5006B01E600C400B9
:1010C600D8006E616E00696E66006F7666002C2031
:0410D600000D0A00FF
:00000001FF
