:100000000C945D000C9485000C9485000C94850084
:100010000C9485000C9485000C9485000C9485004C
:100020000C9485000C9485000C9485000C9485003C
:100030000C9485000C9485000C9485000C9485002C
:100040000C945E030C9485000C942C030C94060312
:100050000C9485000C9485000C9485000C9485000C
:100060000C9485000C9485000000000024002700FB
:100070002A0000000000250028002B0004040404CE
:100080000404040402020202020203030303030342
:10009000010204081020408001020408102001021F
:1000A00004081020000000080002010000030407FB
:1000B0000000000000000000A80311241FBECFEFC5
:1000C000D8E0DEBFCDBF11E0A0E0B1E0E0EAF0E1B2
:1000D00002C005900D92A432B107D9F721E0A4E245
:1000E000B1E001C01D92AD3DB207E1F710E0CDE5F2
:1000F000D0E004C02197FE010E944308CC35D1070F
:10010000C9F70E94E2030C944E080C940000CF92B1
:10011000DF92EF92FF920F931F93CF93DF936C01C7
:100120007A018B01C0E0D0E0CE15DF0589F0D8015F
:100130006D918D01D601ED91FC910190F081E02D42
:10014000C6010995892B11F47E0102C02196ECCFDE
:10015000C701DF91CF911F910F91FF90EF90DF903A
:10016000CF900895089580E090E00895FC01538DAC
:10017000448D252F30E0842F90E0821B930B541781
:1001800010F0CF96089501970895FC01918D828D0E
:10019000981761F0828DDF01A80FB11D5D968C91DB
:1001A000928D9F5F9F73928F90E008958FEF9FEFE6
:1001B0000895FC01918D828D981731F0828DE80FA2
:1001C000F11D858D90E008958FEF9FEF0895FC015C
:1001D000918D228D892F90E0805C9F4F821B910929
:1001E0008F739927089585E391E00E94E70021E04D
:1001F000892B09F420E0822F0895FC01848DDF0112
:10020000A80FB11DA35ABF4F2C91848D90E0019689
:100210008F739927848FA689B7892C93A089B18978
:100220008C9180648C93938D848D981306C0028882
:10023000F389E02D80818F7D80830895EF92FF9276
:100240000F931F93CF93DF93EC0181E0888F9B8DF9
:100250008C8D981305C0E889F989808185FD24C0BB
:10026000F62E0B8D10E00F5F1F4F0F731127E02E3E
:100270008C8DE8120CC00FB607FCFACFE889F9891B
:10028000808185FFF5CFCE010E94FD00F1CF8B8DDF
:10029000FE01E80FF11DE35AFF4FF0820B8FEA8950
:1002A000FB898081806207C0EE89FF896083E889CD
:1002B000F98980818064808381E090E0DF91CF9133
:1002C0001F910F91FF90EF900895CF93DF93EC0172
:1002D000888D8823C9F0EA89FB89808185FD05C066
:1002E000A889B9898C9186FD0FC00FB607FCF5CFA0
:1002F000808185FFF2CFA889B9898C9185FFEDCFE8
:10030000CE010E94FD00E7CFDF91CF91089580E0FC
:1003100090E0892B29F00E94F30081110C940000D9
:1003200008958E3008F08E508770806480937C0032
:1003300080917A00806480937A0080917A0086FDB3
:10034000FCCF809178002091790090E0922B089565
:100350003FB7F8948091290190912A01A0912B0137
:10036000B0912C0126B5A89B05C02F3F19F001962E
:10037000A11DB11D3FBFBA2FA92F982F8827820F2B
:10038000911DA11DB11DBC01CD0142E0660F771F7B
:10039000881F991F4A95D1F70895009769F0FC01CD
:1003A00001900020E9F73197AF01481B590BBC01C0
:1003B00085E391E00C94870080E090E008958F92AF
:1003C0009F92AF92BF920F931F93CF93DF93CDB7BE
:1003D000DEB7A1970FB6F894DEBF0FBECDBF19A24E
:1003E000423008F44AE08E010F5D1F4F842E912C9D
:1003F000A12CB12CA50194010E942108E62FB9017E
:10040000CA0101501109EA3014F4E05D01C0E95C51
:10041000D801EC93232B242B252B61F7C8010E94D4
:10042000CD01A1960FB6F894DEBF0FBECDBFDF9110
:10043000CF911F910F91BF90AF909F908F90089593
:100440004F925F926F927F928F929F92AF92BF92E4
:10045000CF92DF92EF92FF926B017C01B42E9B0151
:10046000AC010E941C08882319F082E191E027C0AA
:1004700026013701E89477F82FEF3FEF4FE75FE76A
:10048000C301B2010E941C0881110DC02FEF3FEF84
:100490004FE75FE7C301B2010E94520618161CF431
:1004A00086E191E00CC02FEF3FEF4FE75FE4C7011B
:1004B000B6010E94AA07181684F48AE191E0FF9021
:1004C000EF90DF90CF90BF90AF909F908F907F90F4
:1004D0006F905F904F900C94CD012FEF3FEF4FE75F
:1004E0005FECC701B6010E94520687FDE6CF20E00F
:1004F00030E0A901C701B6010E94520687FF11C072
:10050000E0913501F09136010190F081E02D6DE22E
:1005100085E391E009954C01F7FAF094F7F8F0942F
:1005200002C0812C912CA12C60E070E080E09FE360
:10053000AB1441F020E030E040E251E40E94570665
:10054000A394F6CF9B01AC01C701B6010E94E6055A
:100550002B013C010E94C9066B017C010E94F80638
:100560009B01AC01C301B2010E94E5052B013C01D6
:100570004AE0C701B6010E94DF017C01E80CF91CCA
:10058000BB2069F0E0913501F09136010190F081D6
:10059000E02D6EE285E391E00995E80EF91EDB2C73
:1005A000DD2021F120E030E040E251E4C301B2015E
:1005B0000E94AF072B013C010E94C9064B01A12CF0
:1005C000B12C4AE0C501B4010E94DF01E80EF91E1A
:1005D000C501B4010E94F8069B01AC01C301B20140
:1005E0000E94E5052B013C01DA94DACFC701FF90A8
:1005F000EF90DF90CF90BF90AF909F908F907F90C3
:100600006F905F904F9008950E9449081F920F923B
:100610000FB60F9211242F933F934F935F936F93D5
:100620007F938F939F93AF93BF93EF93FF9385E354
:1006300091E00E94FD00FF91EF91BF91AF919F91DA
:100640008F917F916F915F914F913F912F910F907B
:100650000FBE0F901F9018951F920F920FB60F921A
:1006600011242F938F939F93EF93FF93E091450174
:10067000F09146018081E0914B01F0914C0182FDA7
:1006800012C0908180914E018F5F8F7320914F0136
:10069000821751F0E0914E01F0E0EB5CFE4F958F38
:1006A00080934E0101C08081FF91EF919F918F91C6
:1006B0002F910F900FBE0F901F9018951F920F92C1
:1006C0000FB60F9211242F933F938F939F93AF9365
:1006D000BF938091250190912601A0912701B091AF
:1006E00028013091240123E0230F2D3720F40196B7
:1006F000A11DB11D05C026E8230F0296A11DB11D45
:10070000209324018093250190932601A093270133
:10071000B09328018091290190912A01A0912B0189
:10072000B0912C010196A11DB11D809329019093D8
:100730002A01A0932B01B0932C01BF91AF919F91FF
:100740008F913F912F910F900FBE0F901F90189592
:10075000E5E3F1E01382128288EE93E0A0E0B0E0DE
:1007600084839583A683B78384E091E0918380831B
:1007700085EC90E09587848784EC90E09787868766
:1007800080EC90E0918B808B81EC90E0938B828B5E
:1007900082EC90E0958B848B86EC90E0978B868B37
:1007A000118E128E138E148EE2EDF1E01182108202
:1007B0001282138214821582168217821086118685
:1007C00012860895789484B5826084BD84B5816072
:1007D00084BD85B5826085BD85B5816085BD80910C
:1007E0006E00816080936E00109281008091810084
:1007F000826080938100809181008160809381007C
:10080000809180008160809380008091B10084603D
:100810008093B1008091B00081608093B00080919E
:100820007A00846080937A0080917A00826080935D
:100830007A0080917A00816080937A0080917A00BA
:10084000806880937A001092C10080E00E9491013C
:10085000BC01990F880B990B0E94FA0620E030E04A
:1008600040EF51E40E94AF0720E030E040E85AE357
:100870000E94AF0720E030E040EA51E40E94E60524
:100880006B017C01609331017093320180933301DD
:10089000909334011092D3011092D20120E030E005
:1008A00040E85FE30E94E5056093D9017093DA01A7
:1008B0008093DB019093DC0120E030E040E85FE3CF
:1008C000C701B6010E94E6056093D5017093D60179
:1008D0008093D7019093D80181E08093D4010CE9F3
:1008E00010E0F8012491C8E8D0E0FE01849188234B
:1008F00099F090E0880F991FFC01E859FF4FA591EE
:10090000B491FC01EE58FF4F859194918FB7F89404
:100910009C91292B2C938FBFE0914501F0914601CA
:1009200082E08083E0914101F09142011082E091E8
:100930004301F091440180E1808310924D01E091E8
:100940004901F0914A0186E08083E0914701F091EE
:100950004801808180618083E0914701F0914801E6
:10096000808188608083E0914701F0914801808117
:1009700080688083E0914701F091480180818F7DFC
:1009800080830E94A8014B015C0138EEC32E33E046
:10099000D32EE12CF12C0E94A801DC01CB01881997
:1009A0009909AA09BB09883E9340A105B10558F0F1
:1009B000F1E0CF1AD108E108F10828EE820E23E019
:1009C000921EA11CB11CC114D104E104F10419F759
:1009D00080E00E949101BC01990F880B990B0E9445
:1009E000FA0620E030E040EF51E40E94AF0720E03B
:1009F00030E040E85AE30E94AF0720E030E040EAF0
:100A000051E40E94E6054B015C0160933101709353
:100A10003201809333019093340181E00E9491016F
:100A2000BC01990F880B990B0E94FA0620E93EE35E
:100A30004AEF5EE30E94AF076B017C0160932D01DA
:100A400070932E0180932F019093300120E030E0CD
:100A500040E85FE3C501B4010E94E5052B013C01BC
:100A600020E030E040E85FE3C501B4010E94E60504
:100A70004B015C012091D9013091DA014091DB01F9
:100A80005091DC01C701B6010E945206282E221C9B
:100A90002224221C332433942091D5013091D60195
:100AA0004091D7015091D801C701B6010E94AA0711
:100AB00018160CF0312C8091D2019091D30100973F
:100AC00059F00197A1F4211010C08091D40188231E
:100AD00071F081E083250CC0311007C08091D401F2
:100AE000882329F081E0822503C081E001C080E0F5
:100AF0008093D401E0EBF0E02491F8019491FE01A1
:100B00003491332309F43DC0222339F1233091F08D
:100B100038F42130A9F0223001F524B52F7D12C020
:100B2000273091F02830A1F02430B9F420918000D2
:100B30002F7D03C0209180002F77209380000DC06F
:100B400024B52F7724BD09C02091B0002F7703C0B2
:100B50002091B0002F7D2093B000E32FF0E0EE0F46
:100B6000FF1FEE58FF4FA591B4912FB7F894811154
:100B700004C08C919095982302C08C91982B9C93E3
:100B80002FBF41E0C301B2010E9420028EE191E03B
:100B90000E94CD0141E0C501B4010E9420028EE116
:100BA00091E00E94CD0160912D0170912E01809104
:100BB0002F019091300141E00E94200281E291E0FA
:100BC0000E94CD010E948701DCCE5058BB27AA2786
:100BD0000E94FD050C9470070E94620738F00E9485
:100BE000690720F039F49F3F19F426F40C945F074D
:100BF0000EF4E095E7FB0C945907E92F0E9481075A
:100C000058F3BA17620773078407950720F079F441
:100C1000A6F50C94A3070EF4E0950B2EBA2FA02D89
:100C20000B01B90190010C01CA01A0011124FF2799
:100C3000591B99F0593F50F4503E68F11A16F04094
:100C4000A22F232F342F4427585FF3CF4695379593
:100C50002795A795F0405395C9F77EF41F16BA0B58
:100C6000620B730B840BBAF09150A1F0FF0FBB1F06
:100C7000661F771F881FC2F70EC0BA0F621F731F4F
:100C8000841F48F4879577956795B795F7959E3FAC
:100C900008F0B0CF9395880F08F09927EE0F97953D
:100CA000879508950E94350708F481E008950E9411
:100CB0006B060C9470070E94690758F00E94620747
:100CC00040F029F45F3F29F00C94590751110C941E
:100CD000A4070C945F070E94810768F39923B1F37E
:100CE000552391F3951B550BBB27AA276217730752
:100CF000840738F09F5F5F4F220F331F441FAA1FE6
:100D0000A9F335D00E2E3AF0E0E832D091505040A1
:100D1000E695001CCAF72BD0FE2F29D0660F771F4F
:100D2000881FBB1F261737074807AB07B0E809F035
:100D3000BB0B802DBF01FF2793585F4F3AF09E3FBA
:100D4000510578F00C9459070C94A4075F3FE4F325
:100D5000983ED4F3869577956795B795F7959F5FFD
:100D6000C9F7880F911D9695879597F90895E1E049
:100D7000660F771F881FBB1F621773078407BA07A8
:100D800020F0621B730B840BBA0BEE1F88F7E09503
:100D900008950E94890788F09F5798F0B92F9927E6
:100DA000B751B0F0E1F0660F771F881F991F1AF056
:100DB000BA95C9F714C0B13091F00E94A307B1E011
:100DC00008950C94A307672F782F8827B85F39F010
:100DD000B93FCCF3869577956795B395D9F73EF4EF
:100DE00090958095709561957F4F8F4F9F4F089597
:100DF000E89409C097FB3EF49095809570956195B5
:100E00007F4F8F4F9F4F9923A9F0F92F96E9BB276A
:100E10009395F695879577956795B795F111F8CFE6
:100E2000FAF4BB0F11F460FF1BC06F5F7F4F8F4F51
:100E30009F4F16C0882311F096E911C0772321F047
:100E40009EE8872F762F05C0662371F096E8862FDF
:100E500070E060E02AF09A95660F771F881FDAF736
:100E6000880F9695879597F90895990F0008550F63
:100E7000AA0BE0E8FEEF16161706E807F907C0F020
:100E800012161306E407F50798F0621B730B840B28
:100E9000950B39F40A2661F0232B242B252B21F402
:100EA00008950A2609F4A140A6958FEF811D811DA2
:100EB000089597F99F6780E870E060E008959FEFDC
:100EC00080EC089500240A941616170618060906E1
:100ED000089500240A9412161306140605060895B0
:100EE000092E0394000C11F4882352F0BB0F40F438
:100EF000BF2B11F460FF04C06F5F7F4F8F4F9F4F78
:100F0000089557FD9058440F551F59F05F3F71F0F9
:100F10004795880F97FB991F61F09F3F79F0879560
:100F20000895121613061406551FF2CF4695F1DFE9
:100F300008C0161617061806991FF1CF8695710579
:100F4000610508940895E894BB2766277727CB01AD
:100F500097F908950E94350708F48FEF08950E94CD
:100F6000C2070C9470070E94620738F00E9469075C
:100F700020F0952311F00C9459070C945F0711246D
:100F80000C94A4070E94810770F3959FC1F3950FFD
:100F900050E0551F629FF001729FBB27F00DB11DFD
:100FA000639FAA27F00DB11DAA1F649F6627B00D8D
:100FB000A11D661F829F2227B00DA11D621F739F76
:100FC000B00DA11D621F839FA00D611D221F749F84
:100FD0003327A00D611D231F849F600D211D822FCB
:100FE000762F6A2F11249F5750409AF0F1F08823F2
:100FF0004AF0EE0FFF1FBB1F661F771F881F91501F
:101000005040A9F79E3F510580F00C9459070C946D
:10101000A4075F3FE4F3983ED4F3869577956795F0
:10102000B795F795E7959F5FC1F7FE2B880F911D48
:101030009695879597F908950E943507880B990B27
:101040000895A1E21A2EAA1BBB1BFD010DC0AA1F09
:10105000BB1FEE1FFF1FA217B307E407F50720F021
:10106000A21BB30BE40BF50B661F771F881F991F9C
:101070001A9469F760957095809590959B01AC01E5
:10108000BD01CF010895EE0FFF1F0590F491E02DF3
:10109000099481E090E0F8940C944E08F894FFCF06
:1010A000000000001E018700B6006501E700C500D2
:1010B000D9006E616E00696E66006F7666002C2046
:0410C000000D0A0015
:00000001FF
