:100000000C945D000C9485000C9485000C94850084
:100010000C9485000C9485000C9485000C9485004C
:100020000C9485000C9485000C9485000C9485003C
:100030000C9485000C9485000C9485000C9485002C
:100040000C946E020C9485000C943C020C941602E5
:100050000C9485000C9485000C9485000C9485000C
:100060000C9485000C9485000000000024002700FB
:100070002A0000000000250028002B0004040404CE
:100080000404040402020202020203030303030342
:10009000010204081020408001020408102001021F
:1000A00004081020000000080002010000030407FB
:1000B0000000000000000000B80211241FBECFEFB6
:1000C000D8E0DEBFCDBF11E0A0E0B1E0ECE5FEE09E
:1000D00002C005900D92A632B107D9F721E0A6E241
:1000E000B1E001C01D92AB3DB207E1F710E0CDE5F4
:1000F000D0E004C02197FE010E942107CC35D10732
:10010000C9F70E94F2020C942C070C940000E091B5
:100110003301F09134010190F081E02D682F83E3E9
:1001200091E00994CF92DF92EF92FF920F931F9389
:10013000CF93DF936C017A018B01C0E0D0E0CE1544
:10014000DF0589F0D8016D918D01D601ED91FC910B
:100150000190F081E02DC6010995892B11F47E01F3
:1001600002C02196ECCFC701DF91CF911F910F9173
:10017000FF90EF90DF90CF900895089580E090E099
:100180000895FC01538D448D252F30E0842F90E09D
:10019000821B930B541710F0CF9608950197089582
:1001A000FC01918D828D981761F0828DDF01A80F7F
:1001B000B11D5D968C91928D9F5F9F73928F90E0A1
:1001C00008958FEF9FEF0895FC01918D828D981710
:1001D00031F0828DE80FF11D858D90E008958FEF4D
:1001E0009FEF0895FC01918D228D892F90E0805C16
:1001F0009F4F821B91098F739927089583E391E0A4
:100200000E94F20021E0892B09F420E0822F08955A
:10021000FC01848DDF01A80FB11DA35ABF4F2C91A3
:10022000848D90E001968F739927848FA689B78972
:100230002C93A089B1898C9180648C93938D848D4B
:10024000981306C00288F389E02D80818F7D80831A
:100250000895EF92FF920F931F93CF93DF93EC01DA
:1002600081E0888F9B8D8C8D981305C0E889F98972
:10027000808185FD24C0F62E0B8D10E00F5F1F4F8F
:100280000F731127E02E8C8DE8120CC00FB607FCFF
:10029000FACFE889F989808185FFF5CFCE010E94E8
:1002A0000801F1CF8B8DFE01E80FF11DE35AFF4FDE
:1002B000F0820B8FEA89FB898081806207C0EE891A
:1002C000FF896083E889F98980818064808381E087
:1002D00090E0DF91CF911F910F91FF90EF900895E3
:1002E000CF93DF93EC01888D8823C9F0EA89FB89DD
:1002F000808185FD05C0A889B9898C9186FD0FC0D4
:100300000FB607FCF5CF808185FFF2CFA889B989A8
:100310008C9185FFEDCFCE010E940801E7CFDF91E0
:10032000CF91089580E090E0892B29F00E94FE0093
:1003300081110C94000008953FB7F89480912B012F
:1003400090912C01A0912D01B0912E0126B5A89B72
:1003500005C02F3F19F00196A11DB11D3FBFBA2F57
:10036000A92F982F8827820F911DA11DB11DBC01B7
:10037000CD0142E0660F771F881F991F4A95D1F77C
:100380000895009769F0FC0101900020E9F731978A
:10039000AF01481B590BBC0183E391E00C94920020
:1003A00080E090E008958F929F92AF92BF920F935A
:1003B0001F93CF93DF93CDB7DEB7A1970FB6F89415
:1003C000DEBF0FBECDBF19A2423008F44AE08E0155
:1003D0000F5D1F4F842E912CA12CB12CA5019401EF
:1003E0000E94FF06E62FB901CA0101501109EA3047
:1003F00014F4E05D01C0E95CD801EC93232B242BBD
:10040000252B61F7C8010E94C101A1960FB6F8948F
:10041000DEBF0FBECDBFDF91CF911F910F91BF9077
:10042000AF909F908F9008950E9427071F920F9280
:100430000FB60F9211242F933F934F935F936F93B7
:100440007F938F939F93AF93BF93EF93FF9383E338
:1004500091E00E940801FF91EF91BF91AF919F91B0
:100460008F917F916F915F914F913F912F910F905D
:100470000FBE0F901F9018951F920F920FB60F92FC
:1004800011242F938F939F93EF93FF93E091430158
:10049000F09144018081E0914901F0914A0182FD8F
:1004A00012C0908180914C018F5F8F7320914D011C
:1004B000821751F0E0914C01F0E0ED5CFE4F958F1A
:1004C00080934C0101C08081FF91EF919F918F91AA
:1004D0002F910F900FBE0F901F9018951F920F92A3
:1004E0000FB60F9211242F933F938F939F93AF9347
:1004F000BF938091270190912801A0912901B0918B
:100500002A013091260123E0230F2D3720F4019694
:10051000A11DB11D05C026E8230F0296A11DB11D26
:10052000209326018093270190932801A09329010D
:10053000B0932A0180912B0190912C01A0912D0163
:10054000B0912E010196A11DB11D80932B019093B6
:100550002C01A0932D01B0932E01BF91AF919F91DB
:100560008F913F912F910F900FBE0F901F90189574
:10057000E3E3F1E01382128288EE93E0A0E0B0E0C2
:1005800084839583A683B78384E091E091838083FD
:1005900085EC90E09587848784EC90E09787868748
:1005A00080EC90E0918B808B81EC90E0938B828B40
:1005B00082EC90E0958B848B86EC90E0978B868B19
:1005C000118E128E138E148EE0EDF1E011821082E6
:1005D0001282138214821582168217821086118667
:1005E00012860895789484B5826084BD84B5816054
:1005F00084BD85B5826085BD85B5816085BD8091EE
:100600006E00816080936E00109281008091810065
:10061000826080938100809181008160809381005D
:10062000809180008160809380008091B10084601F
:100630008093B1008091B00081608093B000809180
:100640007A00846080937A0080917A00826080933F
:100650007A0080917A00816080937A0080917A009C
:10066000806880937A001092C100E0914301F0917C
:10067000440182E08083E0913F01F09140011082CB
:10068000E0914101F091420180E1808310924B01A1
:10069000E0914701F091480186E08083E0914501B7
:1006A000F0914601808180618083E0914501F09165
:1006B0004601808188608083E0914501F091460188
:1006C000808180688083E0914501F09146018081BE
:1006D0008F7D80831092D1011092D00180E090E054
:1006E000A0E2B0E48093D7019093D801A093D90100
:1006F000B093DA0180E090E0A0E4B0E48093D3010D
:100700009093D401A093D501B093D6011092D20159
:100710000DE910E0F801249169E8A62E60E0B62EFC
:10072000F5018491882399F090E0880F991FFC01CE
:10073000E859FF4FA591B491FC01EE58FF4F859108
:1007400094918FB7F8949C91292B2C938FBF30E410
:10075000332ED1E041EB842E40E0942E0E949C0188
:100760002B013C0124E6C22ED12CE12CF12C0E945D
:100770009C01DC01CB0184199509A609B709883EC3
:100780009340A105B10558F0F1E0CF1AD108E10876
:10079000F10828EE420E23E0521E611C711CC114A8
:1007A000D104E104F10419F730927C0080917A00C1
:1007B000806480937A0080917A0086FDFCCF6091FE
:1007C00078008091790070E0782B072E000C880B60
:1007D000990B0E94D80520E030E040EA50E40E94E6
:1007E0008D0620E030E040E85AE30E948D066B0160
:1007F0007C0160932F0170933001809331019093BD
:1008000032012091D7013091D8014091D901509106
:10081000DA010E94A205782E771C7724771CC1E0AC
:100820002091D3013091D4014091D5015091D6014E
:10083000C701B6010E94880618160CF0C0E080912E
:10084000D0019091D101009749F0019791F4711076
:100850000EC08091D201882361F007C0C11107C08A
:100860008091D201882329F0C72DCD2703C0C1E094
:1008700001C0C0E0C093D201F4019491F8018491C9
:10088000F5012491222309F43CC0992339F19330D6
:1008900091F038F49130A9F0923001F594B59F7D34
:1008A00012C0973091F09830A1F09430B9F4909143
:1008B00080009F7D03C0909180009F77909380007F
:1008C0000DC094B59F7794BD09C09091B0009F77FB
:1008D00003C09091B0009F7D9093B000E22FF0E0B4
:1008E000EE0FFF1FEE58FF4FA591B4919FB7F894FC
:1008F0002C91C11103C08095822301C0822B8C935F
:100900009FBFC0902F01D0903001E0903101F09056
:100910003201A7019601C701B6010E94FA06882399
:1009200019F082E191E01AC026013701E89477F8C6
:100930002FEF3FEF4FE75FE7C301B2010E94FA06D6
:1009400081110FC02FEF3FEF4FE75FE7C301B20107
:100950000E94A20518162CF486E191E00E94C101C4
:1009600072C02FEF3FEF4FE75FE4C701B6010E946F
:10097000880618161CF48AE191E0F0CF2FEF3FEFC4
:100980004FE75FECC701B6010E94A20587FDF3CFD8
:1009900020E030E0A901C701B6010E94A20587FF4F
:1009A00007C08DE20E948700F7FAF094F7F8F09400
:1009B0002AE037ED43EA5BE3C701B6010E94360542
:1009C0002B013C010E94A7056B017C010E94D6050A
:1009D0009B01AC01C301B2010E9435052B013C0112
:1009E0004AE0C701B6010E94D3018EE20E9487004F
:1009F00020E030E040E251E4C301B2010E948D06E4
:100A00006B017C010E94A7052B01612C712C4AE02F
:100A1000C301B2010E94D301C301B2010E94D605F5
:100A20009B01AC01C701B6010E94350520E030E012
:100A300040E251E40E948D060E94A70580E090E00C
:100A40004AE00E94D3018EE191E00E94C1016C2F27
:100A500070E080E090E04AE00E94D30183E291E000
:100A60000E94C1010E94920179CE5058BB27AA274B
:100A70000E944D050C944E060E94400638F00E94DC
:100A8000470620F039F49F3F19F426F40C943D06F4
:100A90000EF4E095E7FB0C943706E92F0E945F0601
:100AA00058F3BA17620773078407950720F079F4A3
:100AB000A6F50C9481060EF4E0950B2EBA2FA02D0E
:100AC0000B01B90190010C01CA01A0011124FF27FB
:100AD000591B99F0593F50F4503E68F11A16F040F6
:100AE000A22F232F342F4427585FF3CF46953795F5
:100AF0002795A795F0405395C9F77EF41F16BA0BBA
:100B0000620B730B840BBAF09150A1F0FF0FBB1F67
:100B1000661F771F881FC2F70EC0BA0F621F731FB0
:100B2000841F48F4879577956795B795F7959E3F0D
:100B300008F0B0CF9395880F08F09927EE0F97959E
:100B4000879508950E94130608F481E008950E9495
:100B5000670688F09F5798F0B92F9927B751B0F0E2
:100B6000E1F0660F771F881F991F1AF0BA95C9F731
:100B700014C0B13091F00E948106B1E008950C9448
:100B80008106672F782F8827B85F39F0B93FCCF3FB
:100B9000869577956795B395D9F73EF490958095AE
:100BA000709561957F4F8F4F9F4F0895E89409C0CE
:100BB00097FB3EF490958095709561957F4F8F4F90
:100BC0009F4F9923A9F0F92F96E9BB279395F695A6
:100BD000879577956795B795F111F8CFFAF4BB0F24
:100BE00011F460FF1BC06F5F7F4F8F4F9F4F16C088
:100BF000882311F096E911C0772321F09EE8872F12
:100C0000762F05C0662371F096E8862F70E060E0CD
:100C10002AF09A95660F771F881FDAF7880F969546
:100C2000879597F90895990F0008550FAA0BE0E8EA
:100C3000FEEF16161706E807F907C0F0121613069E
:100C4000E407F50798F0621B730B840B950B39F4DE
:100C50000A2661F0232B242B252B21F408950A2644
:100C600009F4A140A6958FEF811D811D089597F984
:100C70009F6780E870E060E008959FEF80EC089542
:100C800000240A941616170618060906089500246B
:100C90000A9412161306140605060895092E0394E5
:100CA000000C11F4882352F0BB0F40F4BF2B11F459
:100CB00060FF04C06F5F7F4F8F4F9F4F089557FDB8
:100CC0009058440F551F59F05F3F71F04795880FBA
:100CD00097FB991F61F09F3F79F087950895121651
:100CE00013061406551FF2CF4695F1DF08C01616FD
:100CF00017061806991FF1CF8695710561050894AE
:100D00000895E894BB2766277727CB0197F90895C4
:100D10000E94130608F48FEF08950E94A0060C9419
:100D20004E060E94400638F00E94470620F09523A8
:100D300011F00C9437060C943D0611240C94820695
:100D40000E945F0670F3959FC1F3950F50E0551F09
:100D5000629FF001729FBB27F00DB11D639FAA2710
:100D6000F00DB11DAA1F649F6627B00DA11D661F5F
:100D7000829F2227B00DA11D621F739FB00DA11D80
:100D8000621F839FA00D611D221F749F3327A00D3A
:100D9000611D231F849F600D211D822F762F6A2FD6
:100DA00011249F5750409AF0F1F088234AF0EE0F3B
:100DB000FF1FBB1F661F771F881F91505040A9F768
:100DC0009E3F510580F00C9437060C9482065F3FDD
:100DD000E4F3983ED4F3869577956795B795F795A4
:100DE000E7959F5FC1F7FE2B880F911D969587951C
:100DF00097F908950E941306880B990B0895A1E2B4
:100E00001A2EAA1BBB1BFD010DC0AA1FBB1FEE1F84
:100E1000FF1FA217B307E407F50720F0A21BB30BCF
:100E2000E40BF50B661F771F881F991F1A9469F74B
:100E300060957095809590959B01AC01BD01CF01A7
:100E40000895EE0FFF1F0590F491E02D099481E0C5
:0C0E500090E0F8940C942C07F894FFCF6D
:100E5C000000000029019200C1007001F200D000D6
:100E6C00E4006E616E00696E66006F766600205657
:060E7C002C20000D0A000D
:00000001FF
