:100000000C945D000C9485000C9485000C94850084
:100010000C9485000C9485000C9485000C9485004C
:100020000C9485000C9485000C9485000C9485003C
:100030000C9485000C9485000C9485000C9485002C
:100040000C9469020C9485000C9437020C941102F4
:100050000C9485000C9485000C9485000C9485000C
:100060000C9485000C9485000000000024002700FB
:100070002A0000000000250028002B0004040404CE
:100080000404040402020202020203030303030342
:10009000010204081020408001020408102001021F
:1000A00004081020000000080002010000030407FB
:1000B0000000000000000000B30211241FBECFEFBB
:1000C000D8E0DEBFCDBF11E0A0E0B1E0EAE7FEE09E
:1000D00002C005900D92A632B107D9F721E0A6E241
:1000E000B1E001C01D92AB3DB207E1F710E0CDE5F4
:1000F000D0E004C02197FE010E943007CC35D10723
:10010000C9F70E94ED020C943B070C940000CF92BB
:10011000DF92EF92FF920F931F93CF93DF936C01C7
:100120007A018B01C0E0D0E0CE15DF0581F0D80167
:100130006D918D01D601ED91FC910190F081E02D42
:10014000C6010995892B11F02196EECF7E01C701DA
:10015000DF91CF911F910F91FF90EF90DF90CF90A3
:100160000895089580E090E00895FC01538D448D3A
:10017000252F30E0842F90E0821B930B541710F052
:10018000CF96089501970895FC01918D828D98175F
:1001900061F0828DDF01A80FB11D5D968C91928D6B
:1001A0009F5F9F73928F90E008958FEF9FEF089568
:1001B000FC01918D828D981731F0828DE80FF11D31
:1001C000858D90E008958FEF9FEF0895FC01918D4C
:1001D000228D892F90E0805C9F4F821B91098F7345
:1001E0009927089583E391E00E94E60021E0892B9E
:1001F00009F420E0822F0895FC01848DDF01A80F0F
:10020000B11DA35ABF4F2C91848D90E001968F733E
:100210009927848FA689B7892C93A089B1898C915D
:10022000837080648C93938D848D981306C00288AC
:10023000F389E02D80818F7D80830895EF92FF9276
:100240000F931F93CF93DF93EC0181E0888F9B8DF9
:100250008C8D981305C0E889F989808185FD26C0B9
:10026000F62E0B8D10E00F5F1F4F0F731127E02E3E
:100270008C8DE8120CC00FB607FCFACFE889F9891B
:10028000808185FFF5CFCE010E94FC00F1CF8B8DE0
:10029000FE01E80FF11DE35AFF4FF0829FB7F8947B
:1002A0000B8FEA89FB89808180620AC09FB7F8942E
:1002B000EE89FF896083E889F98980818370806491
:1002C00080839FBF81E090E0DF91CF911F910F91DC
:1002D000FF90EF900895CF93DF93EC01888D8823F2
:1002E000C9F0EA89FB89808185FD05C0A889B989A3
:1002F0008C9186FD0FC00FB607FCF5CF808185FF7E
:10030000F2CFA889B9898C9185FFEDCFCE010E94EB
:10031000FC00E7CFDF91CF91089580E090E0892B3A
:1003200029F00E94F20081110C94000008953FB75B
:10033000F89480912B0190912C01A0912D01B09106
:100340002E0126B5A89B05C02F3F19F00196A11DCF
:10035000B11D3FBFBA2FA92F982F8827820F911D5B
:10036000A11DB11DBC01CD0142E0660F771F881FA2
:10037000991F4A95D1F70895009769F0FC01019003
:100380000020E9F73197AF01481B590BBC0183E30B
:1003900091E00C94870080E090E008958F929F9206
:1003A000AF92BF920F931F93CF93DF93CDB7DEB77A
:1003B000A1970FB6F894DEBF0FBECDBF19A2423091
:1003C00008F44AE08E010F5D1F4F842E912CA12C62
:1003D000B12CA50194010E940E07E62FB901CA01B4
:1003E00001501109EA3014F4E05D01C0E95CD80164
:1003F000EC93232B242B252B61F7C8010E94BC0111
:10040000A1960FB6F894DEBF0FBECDBFDF91CF919E
:100410001F910F91BF90AF909F908F9008950E9471
:1004200036071F920F920FB60F9211242F933F930E
:100430004F935F936F937F938F939F93AF93BF93EC
:10044000EF93FF9383E391E00E94FC00FF91EF9113
:10045000BF91AF919F918F917F916F915F914F91DC
:100460003F912F910F900FBE0F901F9018951F92E4
:100470000F920FB60F9211242F938F939F93EF93A8
:10048000FF93E0914301F09144018081E0914901A3
:10049000F0914A0182FD12C0908180914C018F5FE2
:1004A0008F7320914D01821751F0E0914C01F0E0E3
:1004B000ED5CFE4F958F80934C0101C08081FF91D0
:1004C000EF919F918F912F910F900FBE0F901F90E2
:1004D00018951F920F920FB60F9211242F933F93EE
:1004E0008F939F93AF93BF938091270190912801A1
:1004F000A0912901B0912A013091260123E0230F18
:100500002D3720F40196A11DB11D05C026E8230F4B
:100510000296A11DB11D209326018093270190937F
:100520002801A0932901B0932A0180912B01909179
:100530002C01A0912D01B0912E010196A11DB11D9C
:1005400080932B0190932C01A0932D01B0932E0149
:10055000BF91AF919F918F913F912F910F900FBEBF
:100560000F901F901895E3E3F1E01382128288EE5A
:1005700093E0A0E0B0E084839583A683B78384E012
:1005800091E09183808385EC90E09587848784EC6B
:1005900090E09787868780EC90E0918B808B81EC50
:1005A00090E0938B828B82EC90E0958B848B86EC31
:1005B00090E0978B868B118E128E138E148EE0ED49
:1005C000F1E0118210821282138214821582168247
:1005D00017821086118612860895789484B58260F9
:1005E00084BD84B5816084BD85B5826085BD85B5D7
:1005F000816085BD80916E00816080936E00109255
:1006000081008091810082608093810080918100CF
:100610008160809381008091800081608093800060
:100620008091B10084608093B1008091B0008160BE
:100630008093B00080917A00846080937A008091EA
:100640007A00826080937A0080917A008160809342
:100650007A0080917A00806880937A001092C100BD
:10066000E0914301F091440182E08083E0913F01F9
:10067000F09140011082E0914101F091420180E14E
:10068000808310924B01E0914701F091480186E090
:100690008083E0914501F0914601808180618083F3
:1006A000E0914501F0914601808188608083E0916E
:1006B0004501F0914601808180688083E091450189
:1006C000F091460180818F7D80831092D10110923C
:1006D000D00180E090E0A0E2B0E48093D701909355
:1006E000D801A093D901B093DA0180E090E0A0E4B2
:1006F000B0E48093D3019093D401A093D501B0933B
:10070000D6011092D2010DE910E0F8012491C9E858
:10071000D0E0FE018491882399F090E0880F991F22
:10072000FC01E859FF4FA591B491FC01EE58FF4F31
:10073000859194919FB7F8948C91822B8C939FBF55
:10074000222423940E9497016B017C0194E6892E58
:10075000912CA12CB12C0E949701DC01CB018C19AA
:100760009D09AE09BF09883E9340A105B10598F3E4
:10077000F1E08F1A9108A108B10828EEC20E23E01B
:10078000D21EE11CF11C81149104A104B10419F7DB
:10079000F0E4F0937C0080917A00806480937A008A
:1007A00080917A0086FDFCCF60917800809179007D
:1007B00070E0782B072E000C880B990B0E94E70540
:1007C00020E030E040EA50E40E949C0620E030E067
:1007D00040E85AE30E949C066B017C0160932F0164
:1007E0007093300180933101909332018090D70152
:1007F0009090D801A090D901B090DA014090D30137
:100800005090D4016090D5017090D6018091D001B4
:100810009091D1010097D1F00197A1F5A501940124
:10082000C701B6010E94B10587FD28C08091D201A1
:10083000882339F133243394A3019201C701B6010F
:100840000E9497061816C4F0312C16C0A30192011D
:10085000C701B6010E949706181684F08091D20154
:10086000882379F0A5019401C701B6010E94B10562
:10087000881F8827881F382E322404C033243394DD
:1008800001C0312C3092D201E1EBF0E08491F8010B
:100890009491FE012491222309F43CC0882339F16C
:1008A000833091F038F48130A9F0823001F584B5BD
:1008B0008F7D12C0873091F08830A1F08430B9F478
:1008C000809180008F7D03C0809180008F7780931E
:1008D00080000DC084B58F7784BD09C08091B000C1
:1008E0008F7703C08091B0008F7D8093B000E22F9E
:1008F000F0E0EE0FFF1FEE58FF4FA591B4912FB718
:10090000F8948C91311003C09095982301C0982BD6
:100910009C932FBFC0902F01D0903001E090310107
:10092000F0903201A7019601C701B6010E940907A4
:10093000882319F082E191E01AC046015701E8943A
:10094000B7F82FEF3FEF4FE75FE7C501B4010E9413
:10095000090781110FC02FEF3FEF4FE75FE7C50198
:10096000B4010E94B10518162CF486E191E00E94B2
:10097000BC0176C02FEF3FEF4FE75FE4C701B60140
:100980000E94970618161CF48AE191E0F0CF2FEF31
:100990003FEF4FE75FECC701B6010E94B10587FD4D
:1009A000F3CF20E030E0A901C701B6010E94B105F4
:1009B00087FF09C06DE283E391E00E941E01F7FA10
:1009C000F094F7F8F0942AE037ED43EA5BE3C701CF
:1009D000B6010E9445054B015C010E94B6056B0102
:1009E0007C010E94E5059B01AC01C501B4010E9498
:1009F00044054B015C014AE0C701B6010E94CE01EB
:100A00006EE283E391E00E941E0120E030E040E2CC
:100A100051E4C501B4010E949C064B015C010E9497
:100A2000B6056B01E12CF12C4AE0C701B6010E942A
:100A3000CE01C701B6010E94E5059B01AC01C501CD
:100A4000B4010E94440520E030E040E251E40E94FD
:100A50009C060E94B60580E090E04AE00E94CE012C
:100A60008EE191E00E94BC01832D90E0A0E0B0E017
:100A70004AE0BC01CD010E94CE0183E291E00E94D8
:100A8000BC010E948D015ECE5058BB27AA270E9450
:100A90005C050C945D060E944F0638F00E945606D5
:100AA00020F039F49F3F19F426F40C944C060EF410
:100AB000E095E7FB0C944606E92F0E946E0658F37A
:100AC000BA17620773078407950720F079F4A6F533
:100AD0000C9490060EF4E0950B2EBA2FA02D0B016E
:100AE000B90190010C01CA01A0011124FF27591B73
:100AF00099F0593F50F4503E68F11A16F040A22F79
:100B0000232F342F4427585FF3CF469537952795E9
:100B1000A795F0405395C9F77EF41F16BA0B620BE8
:100B2000730B840BBAF09150A1F0FF0FBB1F661F2F
:100B3000771F881FC2F70EC0BA0F621F731F841F72
:100B400048F4879577956795B795F7959E3F08F098
:100B5000B0CF9395880F08F09927EE0F979587955A
:100B600008950E94220608F481E008950E94760606
:100B700088F09F5798F0B92F9927B751B0F0E1F05E
:100B8000660F771F881F991F1AF0BA95C9F714C00E
:100B9000B13091F00E949006B1E008950C94900657
:100BA000672F782F8827B85F39F0B93FCCF3869547
:100BB00077956795B395D9F73EF4909580957095A4
:100BC00061957F4F8F4F9F4F0895E89409C097FB21
:100BD0003EF490958095709561957F4F8F4F9F4F14
:100BE0009923A9F0F92F96E9BB279395F695879558
:100BF00077956795B795F111F8CFFAF4BB0F11F41B
:100C000060FF1BC06F5F7F4F8F4F9F4F16C08823C1
:100C100011F096E911C0772321F09EE8872F762FF7
:100C200005C0662371F096E8862F70E060E02AF038
:100C30009A95660F771F881FDAF7880F9695879524
:100C400097F90895990F0008550FAA0BE0E8FEEFF9
:100C500016161706E807F907C0F012161306E40780
:100C6000F50798F0621B730B840B950B39F40A2679
:100C700061F0232B242B252B21F408950A2609F457
:100C8000A140A6958FEF811D811D089597F99F675B
:100C900080E870E060E008959FEF80EC0895002404
:100CA0000A941616170618060906089500240A94D1
:100CB00012161306140605060895092E0394000C57
:100CC00011F4882352F0BB0F40F4BF2B11F460FFE6
:100CD00004C06F5F7F4F8F4F9F4F089557FD90580F
:100CE000440F551F59F05F3F71F04795880F97FBF0
:100CF000991F61F09F3F79F08795089512161306AA
:100D00001406551FF2CF4695F1DF08C016161706D8
:100D10001806991FF1CF869571056105089408950D
:100D2000E894BB2766277727CB0197F908950E949F
:100D3000220608F48FEF08950E94AF060C945D061A
:100D40000E944F0638F00E94560620F0952311F0BD
:100D50000C9446060C944C0611240C9491060E94A7
:100D60006E0670F3959FC1F3950F50E0551F629F7B
:100D7000F001729FBB27F00DB11D639FAA27F00DF4
:100D8000B11DAA1F649F6627B00DA11D661F829F1B
:100D90002227B00DA11D621F739FB00DA11D621F00
:100DA000839FA00D611D221F749F3327A00D611D1D
:100DB000231F849F600D211D822F762F6A2F1124FF
:100DC0009F5750409AF0F1F088234AF0EE0FFF1F32
:100DD000BB1F661F771F881F91505040A9F79E3F89
:100DE000510580F00C9446060C9491065F3FE4F3A5
:100DF000983ED4F3869577956795B795F795E795DF
:100E00009F5FC1F7FE2B880F911D9695879597F9E7
:100E100008950E942206880B990B0895A1E21A2ECC
:100E2000AA1BBB1BFD010DC0AA1FBB1FEE1FFF1F8E
:100E3000A217B307E407F50720F0A21BB30BE40BDE
:100E4000F50B661F771F881F991F1A9469F7609525
:100E50007095809590959B01AC01BD01CF010895DF
:100E6000EE0FFF1F0590F491E02D099481E090E0D2
:0A0E7000F8940C943B07F894FFCFB0
:100E7A00000000001E018700B5006B01E600C400F7
:100E8A00D8006E616E00696E66006F766600205645
:060E9A002C20000D0A00EF
:00000001FF
