:100000000C9472000C949A000C949A000C949A0030
:100010000C949A000C949A000C949A000C949A00F8
:100020000C949A000C949A000C949A000C949A00E8
:100030000C949A000C949A000C949A000C949A00D8
:100040000C94CC050C949A000C949A050C947405AD
:100050000C949A000C949A000C949A000C949A00B8
:100060000C949A000C949A00005EBCE2613FDD8320
:10007000C29C7E20A3FD1F41009D23BE46DB65F888
:100080008C11AF32CA57E974000000080002010069
:100090000003040700000000000000000000000052
:1000A000250028002B0000000000240027002A0063
:1000B00000000000230026002900040404040404B6
:1000C0000404020202020202030303030303010207
:1000D00004081020408001020408102001020408D6
:1000E0001020160611241FBECFEFD8E0DEBFCDBF13
:1000F00011E0A0E0B1E0EAE8F9E102C005900D925C
:10010000A43AB107D9F722E0A4EAB1E001C01D92F8
:10011000AE37B207E1F710E0C2E7D0E004C02197A4
:10012000FE010E94B80CC137D107C9F70E94CB0667
:100130000C94C30C0C940000089580E480937C0020
:1001400080917A00806480937A0080917A0086FDA5
:10015000FCCF809178002091790090E0922B089557
:10016000CF92DF92EF92FF920F931F93CF93DF9383
:100170006C017A018B01C0E0D0E0CE15DF0581F083
:10018000D8016D918D01D601ED91FC910190F08126
:10019000E02DC6010995892B11F02196EECF7E0145
:1001A000C701DF91CF911F910F91FF90EF90DF90EA
:1001B000CF900895089580E090E00895FC01538D5C
:1001C000448D252F30E0842F90E0821B930B541731
:1001D00010F0CF96089501970895FC01918D828DBE
:1001E000981761F0828DDF01A80FB11D5D968C918B
:1001F000928D9F5F9F73928F90E008958FEF9FEF96
:100200000895FC01918D828D981731F0828DE80F51
:10021000F11D858D90E008958FEF9FEF0895FC010B
:10022000918D228D892F90E0805C9F4F821B9109D8
:100230008F739927089585EB91E00E940F0121E0CB
:10024000892B09F420E0822F0895FC01848DDF01C1
:10025000A80FB11DA35ABF4F2C91848D90E0019639
:100260008F739927848FA689B7892C93A089B18928
:100270008C91837080648C93938D848D981306C0C9
:100280000288F389E02D80818F7D80830895EF922D
:10029000FF920F931F93CF93DF93EC0181E0888F40
:1002A0009B8D8C8D981305C0E889F989808185FD27
:1002B00026C0F62E0B8D10E00F5F1F4F0F73112716
:1002C000E02E8C8DE8120CC00FB607FCFACFE8893F
:1002D000F989808185FFF5CFCE010E942501F1CFFC
:1002E0008B8DFE01E80FF11DE35AFF4FF0829FB79F
:1002F000F8940B8FEA89FB89808180620AC09FB7DE
:10030000F894EE89FF896083E889F9898081837098
:10031000806480839FBF81E090E0DF91CF911F9147
:100320000F91FF90EF900895CF93DF93EC01888DAC
:100330008823C9F0EA89FB89808185FD05C0A889E9
:10034000B9898C9186FD0FC00FB607FCF5CF80816F
:1003500085FFF2CFA889B9898C9185FFEDCFCE01B9
:100360000E942501E7CFDF91CF91089580E090E0D2
:10037000892B29F00E941B0181110C940000089523
:100380003FB7F8948091A9019091AA01A091AB0187
:10039000B091AC0126B5A89B05C02F3F19F001967E
:1003A000A11DB11D3FBFBA2FA92F982F8827820FFB
:1003B000911DA11DB11DBC01CD0142E0660F771F4B
:1003C000881F991F4A95D1F708958F929F92AF92F7
:1003D000BF92CF92DF92EF92FF926B017C010E945D
:1003E000C0014B015C01C114D104E104F104F1F03E
:1003F0000E94C001DC01CB0188199909AA09BB0937
:10040000883E9340A105B10570F321E0C21AD108DE
:10041000E108F10888EE880E83E0981EA11CB11C4B
:10042000C114D104E104F10419F7DDCFFF90EF907E
:10043000DF90CF90BF90AF909F908F900895DC0198
:1004400080E0615098F02D91982F9227E92FEF705E
:10045000F0E0E859FF4F249192959F70E92FF0E06A
:10046000E858FF4FE491822F8E27EBCF0895FC01CF
:1004700090810180F281E02DF8948181892B818324
:100480002281892F809528232283A7E0B0E011974D
:10049000F1F7218182238183A3E2B0E01197F1F784
:1004A00080817894EFECF0E03197F1F7982381E0C8
:1004B00009F480E00895EF92FF920F931F93CF937A
:1004C000DF937C0108E010E0C0E0D1E0C7010E94AA
:1004D00037028111CD2BDD0F01501109B9F78C2F97
:1004E000DF91CF911F910F91FF90EF900895FC0144
:1004F00090810180F281E02D892F809560FF12C0EC
:10050000F8942281822382838181892B8183A3E2D3
:10051000B0E01197F1F78281982B9283789487ED60
:1005200090E011C0F8942281822382838181892BFB
:100530008183AFEFB0E01197F1F78281982B92831E
:1005400078948FE090E00197F1F70895DF92EF92B1
:10055000FF920F931F93CF93DF93EC01D62EE42EDF
:1005600008E010E0FF24F39461E08D2D8F2109F461
:1005700060E0CE010E947702FF0C01501109A1F743
:10058000E11010C0F894E981FA8191818881809509
:1005900089238183E981FA819281888180958923E9
:1005A00082837894DF91CF911F910F91FF90EF900C
:1005B000DF900895EF92FF920F931F93CF93DF93F5
:1005C0008C017B0140E065E50E94A602E70188E01E
:1005D000E80EF11C699140E0C8010E94A602CE1508
:1005E000DF05C1F7DF91CF911F910F91FF90EF9041
:1005F0000895DC012C911196ED91FC911297F894DD
:100600008181922F90958923818378948DE743E0AF
:1006100050E0815021F1DA011197F1F73081322356
:10062000C1F3F8948281892382838181822B818323
:100630007894ABE7B7E01197F1F7F89481819823AC
:10064000918383E191E00197F1F78081282381E094
:1006500009F080E07894E3E6F6E03197F1F7089549
:10066000EF92FF920F931F93CF93DF937C018B0147
:10067000CDE5D2E08D819E810E94F902B7018D8186
:100680009E810E94DA0240E06EEB8D819E810E9485
:10069000A6028D819E810E945B02F80180838D817C
:1006A0009E810E945B02F80181838D819E810E9460
:1006B0005B02F80182838D819E810E945B02F801BA
:1006C00083838D819E810E945B02F80184838D81EA
:1006D0009E810E945B02F80185838D819E810E942C
:1006E0005B02F80186838D819E810E945B02F80186
:1006F00087838D819E810E945B02F80180878D81B6
:100700009E81DF91CF911F910F91FF90EF900C94FC
:10071000F902CF93DF93CDB7DEB729970FB6F894E0
:10072000DEBF0FBECDBFBE016F5F7F4F0E943003A3
:1007300068E0CE0101960E941F029985891311C0BD
:100740008D818F3361F020F48F3159F489E00CC032
:100750008F3519F08F3739F004C08BE005C08AE07F
:1007600003C080E001C08CE029960FB6F894DEBF8C
:100770000FBECDBFDF91CF910895BF92CF92DF9290
:10078000EF92FF920F931F93CF93DF93EC016B01D6
:100790008D85811105C0CE010E94F902811105C02D
:1007A0001B861D861C8680E060C040E060EFCE01A5
:1007B0000E94A60201E0E12CB12C11E0CE010E94C2
:1007C0003702F82ECE010E94370291E0F91203C0E1
:1007D0008130B1F434C02E2D30E0F8121BC08B856F
:1007E000181738F4FE01E20FF31F8381802341F4D0
:1007F00002C0811729F0F12C193058F41C8709C068
:10080000FE01EE0DF11D8381802B8383FF24F39481
:1008100009C0B12EFE01E20FF31F9381802F809556
:10082000892383836F2DCE010E9477021F5F000F03
:1008300011F4E39401E087E08E1508F0BFCF113486
:1008400008F4AECFBB86B11002C081E08D878B81EA
:10085000882309F4A5CFDE011396F6012B968D911E
:100860008193CA17DB07D9F781E0DF91CF911F9100
:100870000F91FF90EF90DF90CF90BF900895009779
:1008800069F0FC0101900020E9F73197AF01481BA6
:10089000590BBC0185EB91E00C94B00080E090E036
:1008A00008952F923F924F925F926F927F928F9214
:1008B0009F92AF92BF92CF92DF92EF92FF920F93EF
:1008C0001F93CF93DF93CDB7DEB7A4970FB6F894FD
:1008D000DEBF0FBECDBF4B015C01F42E9B01AC010E
:1008E0000E94910C882319F082E191E027C0240135
:1008F0003501E89477F82FEF3FEF4FE75FE7C3014B
:10090000B2010E94910C81110DC02FEF3FEF4FE714
:100910005FE7C301B2010E94C70A18161CF486E102
:1009200091E00CC02FEF3FEF4FE75FE4C501B4014A
:100930000E941F0C18162CF48AE191E00E943F04DB
:10094000B8C02FEF3FEF4FE75FECC501B4010E9445
:10095000C70A87FDF1CF20E030E0A901C501B4014D
:100960000E94C70A87FF0BC06DE285EB91E00E94F1
:1009700047013C01B7FAB094B7F8B09402C0612CBB
:10098000712C10E060E070E080E09FE3F11641F030
:1009900020E030E040E251E40E94CC0A1F5FF6CF35
:1009A000A50194010E945B0A4B015C010E943E0B71
:1009B0006AA3C72ED82EE92E19A2262F372F482F2B
:1009C000592F8E010F5D1F4F0BA31CA39AE0292EF8
:1009D000312C412C512CCA01B901A20191010E9474
:1009E000960C605DF80162938F0121153105410578
:1009F000510589F7CF010E943F048301080F191F99
:100A0000FF2009F455C06AA17C2D8D2D9E2D0E94DA
:100A10006D0B9B01AC01C501B4010E945A0A4B0148
:100A20005C016EE285EB91E00E944701080F191FFF
:100A30008AE0282E312C412C512C20E030E040E27D
:100A400051E4C501B4010E94240C4B015C010E94D9
:100A50003E0B9B0140E050E019A2CBA0DCA0762E1B
:100A60003AA3642EE52ECA01B901A20191010E94A8
:100A7000960C605DF60162936F0121153105410509
:100A8000510589F7CF010E943F04080F191F672DF8
:100A90007AA1862D9E2D0E946D0B9B01AC01C50194
:100AA000B4010E945A0A4B015C01FA94F110C5CFBF
:100AB000C801A4960FB6F894DEBF0FBECDBFDF917C
:100AC000CF911F910F91FF90EF90DF90CF90BF904B
:100AD000AF909F908F907F906F905F904F903F90DE
:100AE0002F9008950E94BE0C1F920F920FB60F9286
:100AF00011242F933F934F935F936F937F938F9323
:100B00009F93AF93BF93EF93FF9385EB91E00E9488
:100B10002501FF91EF91BF91AF919F918F917F91AF
:100B20006F915F914F913F912F910F900FBE0F905A
:100B30001F9018951F920F920FB60F9211242F93AA
:100B40008F939F93EF93FF93E091C501F091C601BE
:100B50008081E091CB01F091CC0182FD12C09081A7
:100B60008091CE018F5F8F732091CF01821751F05A
:100B7000E091CE01F0E0EB54FE4F958F8093CE01D3
:100B800001C08081FF91EF919F918F912F910F90E4
:100B90000FBE0F901F9018951F920F920FB60F92D5
:100BA00011242F933F938F939F93AF93BF93809183
:100BB000A5019091A601A091A701B091A801309143
:100BC000A40123E0230F2D3720F40196A11DB11DB0
:100BD00005C026E8230F0296A11DB11D2093A40194
:100BE0008093A5019093A601A093A701B093A801BB
:100BF0008091A9019091AA01A091AB01B091AC01A3
:100C00000196A11DB11D8093A9019093AA01A09303
:100C1000AB01B093AC01BF91AF919F918F913F9188
:100C20002F910F900FBE0F901F901895CF93DF93C9
:100C30001092B8011092B70188EE93E0A0E0B0E006
:100C40008093B9019093BA01A093BB01B093BC010A
:100C500084E091E09093B6018093B50185EC90E03B
:100C60009093C2018093C10184EC90E09093C40101
:100C70008093C30180EC90E09093C6018093C501FE
:100C800081EC90E09093C8018093C70182EC90E0E2
:100C90009093CA018093C90186EC90E09093CC01B7
:100CA0008093CB011092CE011092CF011092D0010F
:100CB0001092D101E0EDF0E02491ECEBF0E08491B2
:100CC0008823C1F090E0880F991FFC01EA55FF4F7F
:100CD000C591D491FC01E456FF4FA591B4919FB703
:100CE000F8948881E22FE0958E2388838C91E82305
:100CF000EC939FBFE0EDF0E0E491E0937002ECEB49
:100D0000F0E0E491F0E0EE0FFF1FE055FF4F85911A
:100D10009491909372028093710210927B021092D0
:100D20007D0210927C02EBE7F2E0129282E0E33760
:100D3000F807D9F78CE990E090936F0280936E02E8
:100D400080E792E0909363028093620210926102C6
:100D500010925D0289E080935E0281E080935F02E1
:100D60008093600210925302109252021092540229
:100D70001092550210925602109257021092580289
:100D80001092590210925A0210925B0210925C0269
:100D9000DF91CF910895CF93DF93CDB7DEB76597FD
:100DA0000FB6F894DEBF0FBECDBF789484B58260D5
:100DB00084BD84B5816084BD85B5826085BD85B5FF
:100DC000816085BD80916E00816080936E0010927D
:100DD00081008091810082608093810080918100F8
:100DE0008160809381008091800081608093800089
:100DF0008091B10084608093B1008091B0008160E7
:100E00008093B00080917A00846080937A00809112
:100E10007A00826080937A0080917A00816080936A
:100E20007A0080917A00806880937A001092C100E5
:100E3000E0916202F0916302138615861486DF0149
:100E40001B9633961E92AE17BF07E1F71092610210
:100E500001E0BE01665F7F4F809162029091630264
:100E60000E94BD03882309F45AC067E0CE010A96A8
:100E70000E941F0299898913ECCF80915D02811134
:100E800027C080916202909163020E94F902BE0124
:100E9000665F7F4F80916202909163020E94DA0246
:100EA00040E064EB80916202909163020E94A6028E
:100EB00080916202909163020E943702182F809104
:100EC0006202909163020E94F902112309F428C181
:100ED000BE016F5F7F4FCE010A960E9430031091D2
:100EE0005E028A85803109F4E1C2CE010A960E9431
:100EF0008903811718F480915E0209C08A858031C8
:100F000011F489E004C0CE010A960E9489038093FF
:100F10005E02809161028F5F809361029ACFE091BF
:100F2000C501F091C60182E08083E091C101F0919A
:100F3000C2011082E091C301F091C40180E180837D
:100F40001092CD01E091C901F091CA0186E0808341
:100F5000E091C701F091C801808180618083E091B8
:100F6000C701F091C801808188608083E091C7014A
:100F7000F091C801808180688083E091C701F09181
:100F8000C80180818F7D808385E291E00E943F04CB
:100F900087E691E00E943F040E949D00BC01990FEA
:100FA000880B990B0E946F0B20E030E040EF51E47A
:100FB0000E94240C20E030E040E85AE30E94240C18
:100FC00020E030E040EA51E40E945B0A2B013C0142
:100FD0006093AD017093AE018093AF019093B00127
:100FE000109253021092520220E030E040E85EE39B
:100FF0000E945A0A6093590270935A0280935B02CE
:1010000090935C0220E030E040E85EE3C301B2016F
:101010000E945B0A609355027093560280935702B8
:101020009093580281E080935402EAEDF0E024911D
:10103000A6EC2A2EA0E03A2EF1018491882399F0A3
:1010400090E0880F991FFC01EA55FF4FA591B491DC
:10105000FC01E456FF4F859194919FB7F8948C91D1
:10106000822B8C939FBF8824839464E670E080E099
:1010700090E00E94E50180916202909163020E94DB
:10108000F90240E06CEC80916202909163020E9450
:10109000A60240915D0264E4809162029091630235
:1010A0000E94A60280915F028823E9F080915E028F
:1010B0008A3049F08B3061F0893079F46EE570E068
:1010C00080E090E00EC06CEB70E080E090E009C042
:1010D00067E771E080E090E004C06EEE72E080E0CF
:1010E00090E00E94E501E0916202F09163021386B4
:1010F00015861486DF011B96CF0103961E92A81752
:10110000B907E1F7BE01665F7F4FCF010E94BD03C3
:10111000882349F067E0CE010A960E941F0203C0AF
:1011200000935D02D5CEBE016F5F7F4FCE010A9660
:101130000E94300368E0CE0101960E941F0299854B
:101140008913AEC109811A818A858232B9F1883248
:10115000A9F1803109F07CC0F8846F2D70E08F8197
:10116000681B7109072E000C880B990B0E946F0BEE
:101170002B013C016F2D70E080E090E00E946D0B30
:101180009B01AC01C301B2010E94CC0A6B017C013E
:10119000B80175956795072E000C880B990B0E9476
:1011A0006F0B20E030E040E85EE30E945A0A9B01AA
:1011B000AC01C701B6010E945B0A46C08D818F3326
:1011C00091F1A0F48F3109F043C0B80143E0759567
:1011D00067954A95E1F7072E000C880B990B0E9442
:1011E0006F0B20E030E040E05FE32CC08F3569F00A
:1011F0008F3771F5B801110F880B990B0E946F0B97
:1012000020E030E040E85DE31DC0B80175956795CA
:10121000072E000C880B990B0E946F0B20E030E02A
:1012200040E05EE30FC0B8017595679575956795C9
:10123000072E000C880B990B0E946F0B20E030E00A
:1012400040E85EE30E94240CE62ED72EC82EB92E6D
:10125000FE2C0D2D1C2DAB2C8F2D902FA12FBA2DD8
:101260008093B1019093B201A093B301B093B40104
:101270000E949D00BC01990F880B990B0E946F0B77
:1012800020E030E040EF51E40E94240C20E030E008
:1012900040E85AE30E94240C20E030E040EA51E4A8
:1012A0000E945B0A6A8B7B8B8C8B9D8B6093AD015C
:1012B0007093AE018093AF019093B00120E030E0D5
:1012C00040E85EE30E945A0A2B013C0160935902F8
:1012D00070935A0280935B0290935C0220E030E0AE
:1012E00040E85EE36A897B898C899D890E945B0A5C
:1012F0006A8B7B8B8C8B9D8B60935502709356020F
:101300008093570290935802809152029091530219
:10131000009701F1019709F040C02F2D302F412F88
:101320005A2DC301B2010E941F0C181694F180912E
:101330005402882389F12F2D302F412F5A2D6A898D
:101340007B898C899D890E94C70A881F8827881FEE
:10135000982E1DC02F2D302F412F5A2D6A897B8941
:101360008C899D890E94C70A87FD13C08091540211
:10137000882391F0992493942F2D302F412F5A2DAB
:10138000C301B2010E941F0C18160CF0912C982476
:1013900004C09924939401C0912C90925402E4E9E2
:1013A000F0E08491EAEDF0E09491F10124912223A0
:1013B00009F43CC0882339F1833091F038F481304E
:1013C000A9F0823001F584B58F7D12C0873091F08D
:1013D0008830A1F08430B9F4809180008F7D03C003
:1013E000809180008F77809380000DC084B58F77C7
:1013F00084BD09C08091B0008F7703C08091B00098
:101400008F7D8093B000E22FF0E0EE0FFF1FE456D7
:10141000FF4FA591B4912FB7F8948C91911003C010
:101420009095982301C0982B9C932FBF8AE691E05A
:101430000E943F046091AD017091AE018091AF01B7
:101440009091B00141E00E94510485E791E00E9433
:101450003F048DE791E00E943F046091B1017091DB
:10146000B2018091B3019091B40141E00E94510416
:1014700085E791E00E943F0483E991E00E943F04E8
:10148000992019F08EE191E002C082E291E00E9481
:101490003F0487E691E00E943F040E94B601E5CD3B
:1014A000F12C00E01EEF82ECA82ED6CE1A3008F008
:1014B00022CD27CD5058BB27AA270E94720A0C9430
:1014C000E50B0E94D70B38F00E94DE0B20F039F4B8
:1014D0009F3F19F426F40C94D40B0EF4E095E7FB2F
:1014E0000C94CE0BE92F0E94F60B58F3BA17620743
:1014F00073078407950720F079F4A6F50C94180C6F
:101500000EF4E0950B2EBA2FA02D0B01B90190011E
:101510000C01CA01A0011124FF27591B99F0593F62
:1015200050F4503E68F11A16F040A22F232F342FAA
:101530004427585FF3CF469537952795A795F040F8
:101540005395C9F77EF41F16BA0B620B730B840B0D
:10155000BAF09150A1F0FF0FBB1F661F771F881FC5
:10156000C2F70EC0BA0F621F731F841F48F487951D
:1015700077956795B795F7959E3F08F0B0CF93950F
:10158000880F08F09927EE0F9795879508950E9488
:10159000AA0B08F481E008950E94E00A0C94E50B80
:1015A0000E94DE0B58F00E94D70B40F029F45F3FF9
:1015B00029F00C94CE0B51110C94190C0C94D40BF3
:1015C0000E94F60B68F39923B1F3552391F3951B11
:1015D000550BBB27AA2762177307840738F09F5F54
:1015E0005F4F220F331F441FAA1FA9F335D00E2EC1
:1015F0003AF0E0E832D091505040E695001CCAF72E
:101600002BD0FE2F29D0660F771F881FBB1F2617F0
:1016100037074807AB07B0E809F0BB0B802DBF01C7
:10162000FF2793585F4F3AF09E3F510578F00C9496
:10163000CE0B0C94190C5F3FE4F3983ED4F38695DF
:1016400077956795B795F7959F5FC9F7880F911DB7
:101650009695879597F90895E1E0660F771F881FA3
:10166000BB1F621773078407BA0720F0621B730B56
:10167000840BBA0BEE1F88F7E09508950E94FE0BCD
:1016800088F09F5798F0B92F9927B751B0F0E1F043
:10169000660F771F881F991F1AF0BA95C9F714C0F3
:1016A000B13091F00E94180CB1E008950C94180C20
:1016B000672F782F8827B85F39F0B93FCCF386952C
:1016C00077956795B395D9F73EF490958095709589
:1016D00061957F4F8F4F9F4F0895E89409C097FB06
:1016E0003EF490958095709561957F4F8F4F9F4FF9
:1016F0009923A9F0F92F96E9BB279395F69587953D
:1017000077956795B795F111F8CFFAF4BB0F11F4FF
:1017100060FF1BC06F5F7F4F8F4F9F4F16C08823A6
:1017200011F096E911C0772321F09EE8872F762FDC
:1017300005C0662371F096E8862F70E060E02AF01D
:101740009A95660F771F881FDAF7880F9695879509
:1017500097F90895990F0008550FAA0BE0E8FEEFDE
:1017600016161706E807F907C0F012161306E40765
:10177000F50798F0621B730B840B950B39F40A265E
:1017800061F0232B242B252B21F408950A2609F43C
:10179000A140A6958FEF811D811D089597F99F6740
:1017A00080E870E060E008959FEF80EC08950024E9
:1017B0000A941616170618060906089500240A94B6
:1017C00012161306140605060895092E0394000C3C
:1017D00011F4882352F0BB0F40F4BF2B11F460FFCB
:1017E00004C06F5F7F4F8F4F9F4F089557FD9058F4
:1017F000440F551F59F05F3F71F04795880F97FBD5
:10180000991F61F09F3F79F087950895121613068E
:101810001406551FF2CF4695F1DF08C016161706BD
:101820001806991FF1CF86957105610508940895F2
:10183000E894BB2766277727CB0197F908950E9484
:10184000AA0B08F48FEF08950E94370C0C94E50B57
:101850000E94D70B38F00E94DE0B20F0952311F088
:101860000C94CE0B0C94D40B11240C94190C0E94E4
:10187000F60B70F3959FC1F3950F50E0551F629FD3
:10188000F001729FBB27F00DB11D639FAA27F00DD9
:10189000B11DAA1F649F6627B00DA11D661F829F00
:1018A0002227B00DA11D621F739FB00DA11D621FE5
:1018B000839FA00D611D221F749F3327A00D611D02
:1018C000231F849F600D211D822F762F6A2F1124E4
:1018D0009F5750409AF0F1F088234AF0EE0FFF1F17
:1018E000BB1F661F771F881F91505040A9F79E3F6E
:1018F000510580F00C94CE0B0C94190C5F3FE4F36F
:10190000983ED4F3869577956795B795F795E795C3
:101910009F5FC1F7FE2B880F911D9695879597F9CC
:1019200008950E94AA0B880B990B0895A1E21A2E24
:10193000AA1BBB1BFD010DC0AA1FBB1FEE1FFF1F73
:10194000A217B307E407F50720F0A21BB30BE40BC3
:10195000F50B661F771F881F991F1A9469F760950A
:101960007095809590959B01AC01BD01CF010895C4
:10197000EE0FFF1F0590F491E02D099481E090E0B7
:0A198000F8940C94C30CF894FFCF08
:10198A00000000004701B000DE0094010F01ED00E5
:10199A0001016E616E00696E66006F7666004F46E1
:1019AA0046004F4E0041726475696E6F202B2044C9
:1019BA0053313842323020546865726D6F737461E6
:1019CA007420772F20687973746572657369732040
:1019DA00616E64207365747461626C6520746872E8
:1019EA006573686F6C64000D0A00536574706F69E3
:1019FA006E743A200020646567432C200043757298
:101A0A0072656E742054656D706572617475726565
:101A1A003A20004865617465722073746174757345
:041A2A003A2000005E
:00000001FF
