:100000000C94E2000C940A010C940A010C940A016D
:100010000C940A010C940A010C940A010C940A0134
:100020000C940A010C940A010C940A010C940A0124
:100030000C940A010C940A010C940A010C940A0114
:100040000C945D060C940A010C942B060C94050686
:100050000C940A010C940A010C940A010C940A01F4
:100060000C940A010C940A01005EBCE2613FDD833E
:10007000C29C7E20A3FD1F419DC3217FFCA2401E88
:100080005F01E3BD3E6082DC237D9FC1421CFEA078
:10009000E1BF5D0380DE3C62BEE0025CDF81633D68
:1000A0007C22C09E1D43A1FF4618FAA427799BC558
:1000B00084DA3866E5BB5907DB856739BAE4065848
:1000C0001947A5FB7826C49A653BD987045AB8E638
:1000D000A7F91B45C6987A24F8A6441A99C7257B28
:1000E0003A6486D85B05E7B98CD2306EEDB3510F18
:1000F0004E10F2AC2F7193CD114FADF3702ECC9208
:10010000D38D6F31B2EC0E50AFF1134DCE90722CF7
:100110006D33D18F0C52B0EE326C8ED0530DEFB1E7
:10012000F0AE4C1291CF2D73CA947628ABF51749D7
:100130000856B4EA6937D58B5709EBB536688AD4C7
:1001400095CB2977F4AA4816E9B7550B88D6346AB7
:100150002B7597C94A14F6A8742AC896154BA9F7A7
:10016000B6E80A54D7896B35000000080002010088
:100170000003040700000000000000000000000071
:10018000250028002B0000000000240027002A0082
:1001900000000000230026002900040404040404D5
:1001A0000404020202020202030303030303010226
:1001B00004081020408001020408102001020408F5
:1001C0001020A70611241FBECFEFD8E0DEBFCDBFA1
:1001D00011E0A0E0B1E0E0E7FAE102C005900D9285
:1001E000A43AB107D9F722E0A4EAB1E001C01D9218
:1001F000AE37B207E1F710E0C2EED0E004C02197BD
:10020000FE010E942B0DC13ED107C9F70E945C0779
:100210000C94360D0C940000089580E480937C00CB
:1002200080917A00806480937A0080917A0086FDC4
:10023000FCCF809178002091790090E0922B089576
:10024000CF92DF92EF92FF920F931F93CF93DF93A2
:100250006C017A018B01C0E0D0E0CE15DF0589F09A
:10026000D8016D918D01D601ED91FC910190F08145
:10027000E02DC6010995892B11F47E0102C021965B
:10028000ECCFC701DF91CF911F910F91FF90EF90BD
:10029000DF90CF900895089580E090E00895FC01EC
:1002A000538D448D252F30E0842F90E0821B930BDB
:1002B000541710F0CF96089501970895FC01918D81
:1002C000828D981761F0828DDF01A80FB11D5D96B8
:1002D0008C91928D9F5F9F73928F90E008958FEF26
:1002E0009FEF0895FC01918D828D981731F0828DDA
:1002F000E80FF11D858D90E008958FEF9FEF089531
:10030000FC01918D228D892F90E0805C9F4F821B94
:1003100091098F739927089585EB91E00E948001E0
:1003200021E0892B09F420E0822F0895FC01848DBF
:10033000DF01A80FB11DA35ABF4F2C91848D90E00F
:1003400001968F739927848FA689B7892C93A089EA
:10035000B1898C9180648C93938D848D981306C0A1
:100360000288F389E02D80818F7D80830895EF924C
:10037000FF920F931F93CF93DF93EC0181E0888F5F
:100380009B8D8C8D981305C0E889F989808185FD46
:1003900024C0F62E0B8D10E00F5F1F4F0F73112737
:1003A000E02E8C8DE8120CC00FB607FCFACFE8895E
:1003B000F989808185FFF5CFCE010E949601F1CFAA
:1003C0008B8DFE01E80FF11DE35AFF4FF0820B8F7A
:1003D000EA89FB898081806207C0EE89FF8960839A
:1003E000E889F98980818064808381E090E0DF91F1
:1003F000CF911F910F91FF90EF900895CF93DF93CE
:10040000EC01888D8823C9F0EA89FB89808185FD0C
:1004100005C0A889B9898C9186FD0FC00FB607FC6D
:10042000F5CF808185FFF2CFA889B9898C9185FFAE
:10043000EDCFCE010E949601E7CFDF91CF910895D5
:1004400080E090E0892B29F00E948C0181110C94AE
:10045000000008953FB7F8948091A9019091AA01F6
:10046000A091AB01B091AC0126B5A89B05C02F3F70
:1004700019F00196A11DB11D3FBFBA2FA92F982FCA
:100480008827820F911DA11DB11DBC01CD0142E045
:10049000660F771F881F991F4A95D1F708958F928D
:1004A0009F92AF92BF92CF92DF92EF92FF926B0139
:1004B0007C010E942A024B015C01C114D104E104B9
:1004C000F104F1F00E942A02DC01CB01881999099C
:1004D000AA09BB09883E9340A105B10570F321E04C
:1004E000C21AD108E108F10888EE880E83E0981E50
:1004F000A11CB11CC114D104E104F10419F7DDCF32
:10050000FF90EF90DF90CF90BF90AF909F908F9033
:100510000895DC01E0E0615038F08D91E827F0E0CB
:10052000E859FF4FE491F7CF8E2F0895FC01908199
:100530000180F281E02DF8948181892B81832281D1
:10054000892F809528232283A7E0B0E01197F1F747
:10055000218182238183A3E2B0E01197F1F78081AA
:100560007894EFECF0E03197F1F7982381E009F40B
:1005700080E00895EF92FF920F931F93CF93DF9344
:100580007C0108E010E0C0E0D1E0C7010E949602C3
:100590008111CD2BDD0F01501109B9F78C2FDF919F
:1005A000CF911F910F91FF90EF900895FC019081E2
:1005B0000180F281E02D892F809560FF12C0F894B0
:1005C0002281822382838181892B8183A3E2B0E00F
:1005D0001197F1F78281982B9283789487ED90E0C0
:1005E00011C0F8942281822382838181892B8183A7
:1005F000AFEFB0E01197F1F78281982B9283789456
:100600008FE090E00197F1F70895CF92DF92EF929B
:10061000FF920F931F93CF93DF931F92CDB7DEB757
:100620006C01E62E08E010E0FF24F39461E08F2DCA
:100630008E2109F460E0C60149830E94D602FF0CB6
:100640000150110949810115110581F7411115C0AA
:10065000F894D6011196ED91FC91129791818C91AD
:100660008095892381831196ED91FC911297928157
:100670008C9180958923828378940F90DF91CF911C
:100680001F910F91FF90EF90DF90CF900895CF9240
:10069000DF92EF92FF920F931F93CF93DF931F92FE
:1006A000CDB7DEB78C01F62E40E065E579830E9478
:1006B0000503CF2C7981D72E760188E0E80EF11C56
:1006C000F60161916F0140E0C8010E940503CE145C
:1006D000DF04B1F70F90DF91CF911F910F91FF9041
:1006E000EF90DF90CF900895FC0190810180F2811E
:1006F000E02DF8948181292F20958223818378949D
:100700008DE743E050E0815021F1DA011197F1F7D4
:1007100030813923C1F3F8948281822382838181DD
:10072000892B81837894ABE7B7E01197F1F7F894C0
:10073000818128232183A3E1B1E01197F1F7808122
:10074000982381E009F080E07894E3E6F6E03197C1
:10075000F1F70895EF92FF920F931F93CF93DF93DA
:100760007C018B01CDE5D2E08D819E810E947403D6
:10077000B7018D819E810E94470340E06EEB8D8121
:100780009E810E9405038D819E810E94BA02F8011C
:1007900080838D819E810E94BA02F80181838D81C0
:1007A0009E810E94BA02F80182838D819E810E94FF
:1007B000BA02F80183838D819E810E94BA02F801FA
:1007C00084838D819E810E94BA02F80185838D8188
:1007D0009E810E94BA02F80186838D819E810E94CB
:1007E000BA02F80187838D819E810E94BA02F801C6
:1007F00080878D819E81DF91CF911F910F91FF9016
:10080000EF900C947403CF93DF93CDB7DEB72997A5
:100810000FB6F894DEBF0FBECDBFFC0120812031A2
:1008200009F1BE016F5F7F4F0E94AA0368E0CE010D
:1008300001960E9489029985891310C08D818F339A
:1008400059F018F48F3171F009C08F3519F08F37D6
:1008500039F004C08BE007C08AE005C080E003C027
:100860008CE001C089E029960FB6F894DEBF0FBE78
:10087000CDBFDF91CF910895009769F0FC01019001
:100880000020E9F73197AF01481B590BBC0185EBFC
:1008900091E00C94200180E090E008958F929F9267
:1008A000AF92BF920F931F93CF93DF93CDB7DEB775
:1008B000A1970FB6F894DEBF0FBECDBF19A242308C
:1008C00008F44AE08E010F5D1F4F842E912CA12C5D
:1008D000B12CA50194010E94090DE62FB901CA01AE
:1008E00001501109EA3014F4E05D01C0E95CD8015F
:1008F000EC93232B242B252B61F7C8010E943C0489
:10090000A1960FB6F894DEBF0FBECDBFDF91CF9199
:100910001F910F91BF90AF909F908F900895AF92CD
:10092000BF92CF92DF92EF92FF920F931F93CF93DC
:10093000DF931F92CDB7DEB75C01D62EE72EFC0108
:100940008585811105C0C5010E947403811106C00F
:10095000F50113861586148680E065C040E060EFDF
:10096000C5010E94050301E0F12CC12C11E0C50175
:100970000E949602682FC50169830E9496026981D0
:10098000613019F48130B9F433C04F2D50E0681351
:100990001BC0F5018385181730F4E40FF51F838120
:1009A000802349F402C0181731F060E0193058F480
:1009B000F501148708C0F501EF0DF11D8381802B2F
:1009C000838361E009C0C12EF501E40FF51F938117
:1009D000802F809589238383C5010E94D6021F5FE3
:1009E000000F11F4F39401E0F7E0FF1508F0BFCF1A
:1009F000113408F4ADCFF501C386C11002C081E007
:100A00008587F5018381882309F4A2CFD501139648
:100A1000ED2DFE2D9501255F3F4F8D918193A217FE
:100A2000B307D9F781E00F90DF91CF911F910F911C
:100A3000FF90EF90DF90CF90BF90AF9008954F92CE
:100A40005F926F927F928F929F92AF92BF92CF925E
:100A5000DF92EF92FF926B017C01B42E9B01AC01FF
:100A60000E94040D882319F082E191E027C026013D
:100A70003701E89477F82FEF3FEF4FE75FE7C301C7
:100A8000B2010E94040D81110DC02FEF3FEF4FE71F
:100A90005FE7C301B2010E943A0B18161CF486E10D
:100AA00091E00CC02FEF3FEF4FE75FE4C701B601C5
:100AB0000E94920C181684F48AE191E0FF90EF9066
:100AC000DF90CF90BF90AF909F908F907F906F906E
:100AD0005F904F900C943C042FEF3FEF4FE75FEC9B
:100AE000C701B6010E943A0B87FDE6CF20E030E057
:100AF000A901C701B6010E943A0B87FF11C0E0911E
:100B0000B501F091B6010190F081E02D6DE285EB29
:100B100091E009954C01F7FAF094F7F8F09402C0CF
:100B2000812C912CA12C60E070E080E09FE3AB145D
:100B300041F020E030E040E251E40E943F0BA394FA
:100B4000F6CF9B01AC01C701B6010E94CE0A2B0172
:100B50003C010E94B10B6B017C010E94E00B9B01E8
:100B6000AC01C301B2010E94CD0A2B013C014AE055
:100B7000C701B6010E944E047C01E80CF91CBB20A1
:100B800069F0E091B501F091B6010190F081E02D9E
:100B90006EE285EB91E00995E80EF91EDB2CDD2075
:100BA00021F120E030E040E251E4C301B2010E94B3
:100BB000970C2B013C010E94B10B4B01A12CB12CD5
:100BC0004AE0C501B4010E944E04E80EF91EC501B9
:100BD000B4010E94E00B9B01AC01C301B2010E9471
:100BE000CD0A2B013C01DA94DACFC701FF90EF90D8
:100BF000DF90CF90BF90AF909F908F907F906F903D
:100C00005F904F9008950E94310D1F920F920FB682
:100C10000F9211242F933F934F935F936F937F9382
:100C20008F939F93AF93BF93EF93FF9385EB91E0E7
:100C30000E949601FF91EF91BF91AF919F918F918B
:100C40007F916F915F914F913F912F910F900FBEC8
:100C50000F901F9018951F920F920FB60F921124AC
:100C60002F938F939F93EF93FF93E091C501F091A2
:100C7000C6018081E091CB01F091CC0182FD12C0D0
:100C800090818091CE018F5F8F732091CF01821769
:100C900051F0E091CE01F0E0EB54FE4F958F809340
:100CA000CE0101C08081FF91EF919F918F912F9193
:100CB0000F900FBE0F901F9018951F920F920FB6B6
:100CC0000F9211242F933F938F939F93AF93BF93D2
:100CD0008091A5019091A601A091A701B091A801D2
:100CE0003091A40123E0230F2D3720F40196A11D9C
:100CF000B11D05C026E8230F0296A11DB11D20934A
:100D0000A4018093A5019093A601A093A701B0939D
:100D1000A8018091A9019091AA01A091AB01B09185
:100D2000AC010196A11DB11D8093A9019093AA0168
:100D3000A093AB01B093AC01BF91AF919F918F9104
:100D40003F912F910F900FBE0F901F901895CF934A
:100D5000DF931092B8011092B70188EE93E0A0E003
:100D6000B0E08093B9019093BA01A093BB01B09316
:100D7000BC0184E091E09093B6018093B50185ECCD
:100D800090E09093C2018093C10184EC90E0909335
:100D9000C4018093C30180EC90E09093C6018093DE
:100DA000C50181EC90E09093C8018093C70182EC6B
:100DB00090E09093CA018093C90186EC90E09093F3
:100DC000CC018093CB011092CE011092CF011092F2
:100DD000D0011092D101E0EBF1E02491ECE9F1E0D7
:100DE00084918823C1F090E0880F991FFC01EA5795
:100DF000FE4FC591D491FC01E458FE4FA591B491EA
:100E00009FB7F8948881E22FE0958E2388838C9198
:100E1000E823EC939FBFE0EBF1E0E491E0937002F4
:100E2000ECE9F1E0E491F0E0EE0FFF1FE057FE4F38
:100E300085919491909372028093710210927B023B
:100E400010927D0210927C02EBE7F2E0129282E0B7
:100E5000E337F807D9F78CE091E090936F02809325
:100E60006E0280E792E09093630280936202109298
:100E7000610210925D0289E080935E0281E08093BE
:100E80005F028093600210925302109252021092FD
:100E9000540210925502109256021092570210926C
:100EA00058021092590210925A0210925B0210924C
:100EB0005C02DF91CF910895CF93DF93CDB7DEB77A
:100EC00065970FB6F894DEBF0FBECDBF789484B59A
:100ED000826084BD84B5816084BD85B5826085BD36
:100EE00085B5816085BD80916E00816080936E00C4
:100EF00010928100809181008260809381008091B6
:100F00008100816080938100809180008160809366
:100F100080008091B10084608093B1008091B00026
:100F200081608093B00080917A00846080937A0021
:100F300080917A00826080937A0080917A0081604B
:100F400080937A0080917A00806880937A00109272
:100F5000C100E0916202F091630213861586148647
:100F6000DF011B9633961E92AE17BF07E1F7109272
:100F70006102DD24D394BE01665F7F4F80916202DF
:100F8000909163020E948F04882309F451C067E0A6
:100F9000CE010A960E94890299898913ECCF80912B
:100FA0005D02811127C080916202909163020E94CC
:100FB0007403BE01665F7F4F80916202909163026D
:100FC0000E94470340E064EB8091620290916302CB
:100FD0000E94050380916202909163020E94960232
:100FE000C82E80916202909163020E947403CC200B
:100FF00009F4D0C2BE016F5F7F4FCE010A960E94F6
:10100000AA03C0905E02CE010A960E9403048C15CA
:1010100018F480915E0204C0CE010A960E94030477
:1010200080935E02809161028F5F80936102A3CF03
:10103000E091C501F091C60182E08083E091C10199
:10104000F091C2011082E091C301F091C40180E1EE
:1010500080831092CD01E091C901F091CA0186E030
:101060008083E091C701F091C80180818061808315
:10107000E091C701F091C801808188608083E09190
:10108000C701F091C801808180688083E091C70129
:10109000F091C80180818F7D808385E291E00E947C
:1010A0003C0487E691E00E943C040E940D01BC01D3
:1010B000990F880B990B0E94E20B20E030E040EF83
:1010C00051E40E94970C20E030E040E85AE30E948F
:1010D000970C20E030E040EA51E40E94CE0A4B0138
:1010E0005C016093AD017093AE018093AF0190936A
:1010F000B001109253021092520220E030E040E81A
:101100005EE30E94CD0A6093590270935A02809365
:101110005B0290935C0220E030E040E85EE3C501B2
:10112000B4010E94CE0A60935502709356028093D8
:1011300057029093580281E080935402EAEBF1E069
:101140002491B6EA8B2EB1E09B2EF4018491882382
:1011500099F090E0880F991FFC01EA57FE4FA59186
:10116000B491FC01E458FE4F859194918FB7F894A7
:101170009C91292B2C938FBF64E670E080E090E077
:101180000E944F0280916202909163020E94740358
:1011900040E06CEC80916202909163020E94050332
:1011A00040915D0264E480916202909163020E942A
:1011B000050380915F028823E9F080915E028A3006
:1011C00049F08B3061F0893079F46EE570E080E0B1
:1011D00090E00EC06CEB70E080E090E009C067E743
:1011E00071E080E090E004C06EEE72E080E090E09C
:1011F0000E944F02E0916202F0916302138615860D
:101200001486DF011B96CF0103961E92A817B9071B
:10121000E1F7BE01665F7F4FCF010E948F048823F4
:1012200029F067E0CE010A960E948902BE016F5F35
:101230007F4FCE010A960E94AA0368E0CE01019674
:101240000E9489029985891387C06A8170E0762F90
:1012500066278981682B8A858232B1F18832A1F1B3
:10126000803109F080C0188575956795072E000CB0
:10127000880B990B0E94E20B20E030E040E85EE32F
:101280000E94CD0A6B017C01612F70E08F81681B89
:101290007109072E000C880B990B0E94E20B2B01A1
:1012A0003C01612F70E080E090E00E94E00B9B0128
:1012B000AC01C301B2010E943F0B9B01AC01C7010D
:1012C000B6010E94CE0A43C08D818F3381F198F41C
:1012D0008F3109F048C043E0759567954A95E1F76D
:1012E000072E000C880B990B0E94E20B20E030E0E7
:1012F00040E05FE32AC08F3569F08F37A1F5072EF4
:10130000000C880B990B0E94E20B20E030E040E8D3
:101310005DE31BC075956795072E000C880B990B34
:101320000E94E20B20E030E040E05EE30EC07595E5
:10133000679575956795072E000C880B990B0E9491
:10134000E20B20E030E040E85EE30E94970C162FAD
:10135000072FF82EE92E07C0B12CC12C9EEFD92EF5
:1013600022ECA22E04C0B12EC02EDF2CAE2C8B2D71
:101370009C2DAD2DBA2D8093B1019093B201A09315
:10138000B301B093B4010E940D01BC01990F880B09
:10139000990B0E94E20B20E030E040EF51E40E9404
:1013A000970C20E030E040E85AE30E94970C20E0E0
:1013B00030E040EA51E40E94CE0A2B013C016093E8
:1013C000AD017093AE018093AF019093B00120E026
:1013D00030E040E85EE30E94CD0A6A8B7B8B8C8B09
:1013E0009D8B6093590270935A0280935B02909395
:1013F0005C0220E030E040E85EE3C301B2010E94FD
:10140000CE0A2B013C0160935502709356028093E3
:101410005702909358022A893B894C895D896B2D2C
:101420007C2D8D2D9A2D0E943A0B282E221C2224D1
:10143000221C33243394A30192016B2D7C2D8D2D1E
:101440009A2D0E94920C18160CF0312C80915202A9
:1014500090915302009759F00197B1F4211011C0F7
:1014600080915402882381F0F1E03F260EC03110B4
:1014700008C080915402882339F0332433943224F5
:1014800004C03324339401C0312C30925402E4E779
:10149000F1E08491EAEBF1E09491F40124912223AC
:1014A00009F43EC0882339F1833091F038F481305B
:1014B000A9F0823001F584B58F7D12C0873091F09C
:1014C0008830A1F08430B9F4809180008F7D03C012
:1014D000809180008F77809380000DC084B58F77D6
:1014E00084BD09C08091B0008F7703C08091B000A7
:1014F0008F7D8093B000E22FF0E0EE0FFF1FE458E5
:10150000FE4FA591B4912FB7F894311005C03C91CE
:10151000892F8095832302C08C91892B8C932FBFB8
:101520008AE691E00E943C046091AD017091AE01A9
:101530008091AF019091B00141E00E941F0585E7C5
:1015400091E00E943C048DE791E00E943C04609190
:10155000B1017091B2018091B3019091B40141E069
:101560000E941F0585E791E00E943C0483E991E019
:101570000E943C04311003C082E291E002C08EE17F
:1015800091E00E943C0487E691E00E943C040E94A6
:101590002002F2CDD0925D022DCD5058BB27AA2754
:1015A0000E94E50A0C94580C0E944A0C38F00E94E4
:1015B000510C20F039F49F3F19F426F40C94470C99
:1015C0000EF4E095E7FB0C94410CE92F0E94690CA6
:1015D00058F3BA17620773078407950720F079F468
:1015E000A6F50C948B0C0EF4E0950B2EBA2FA02DC3
:1015F0000B01B90190010C01CA01A0011124FF27C0
:10160000591B99F0593F50F4503E68F11A16F040BA
:10161000A22F232F342F4427585FF3CF46953795B9
:101620002795A795F0405395C9F77EF41F16BA0B7E
:10163000620B730B840BBAF09150A1F0FF0FBB1F2C
:10164000661F771F881FC2F70EC0BA0F621F731F75
:10165000841F48F4879577956795B795F7959E3FD2
:1016600008F0B0CF9395880F08F09927EE0F979563
:10167000879508950E941D0C08F481E008950E944A
:10168000530B0C94580C0E94510C58F00E944A0CB9
:1016900040F029F45F3F29F00C94410C51110C9457
:1016A0008C0C0C94470C0E94690C68F39923B1F3DD
:1016B000552391F3951B550BBB27AA276217730778
:1016C000840738F09F5F5F4F220F331F441FAA1F0C
:1016D000A9F335D00E2E3AF0E0E832D091505040C8
:1016E000E695001CCAF72BD0FE2F29D0660F771F76
:1016F000881FBB1F261737074807AB07B0E809F05C
:10170000BB0B802DBF01FF2793585F4F3AF09E3FE0
:10171000510578F00C94410C0C948C0C5F3FE4F371
:10172000983ED4F3869577956795B795F7959F5F23
:10173000C9F7880F911D9695879597F90895E1E06F
:10174000660F771F881FBB1F621773078407BA07CE
:1017500020F0621B730B840BBA0BEE1F88F7E09529
:1017600008950E94710C88F09F5798F0B92F99271F
:10177000B751B0F0E1F0660F771F881F991F1AF07C
:10178000BA95C9F714C0B13091F00E948B0CB1E04A
:1017900008950C948B0C672F782F8827B85F39F049
:1017A000B93FCCF3869577956795B395D9F73EF415
:1017B00090958095709561957F4F8F4F9F4F0895BD
:1017C000E89409C097FB3EF49095809570956195DB
:1017D0007F4F8F4F9F4F9923A9F0F92F96E9BB2791
:1017E0009395F695879577956795B795F111F8CF0D
:1017F000FAF4BB0F11F460FF1BC06F5F7F4F8F4F78
:101800009F4F16C0882311F096E911C0772321F06D
:101810009EE8872F762F05C0662371F096E8862F05
:1018200070E060E02AF09A95660F771F881FDAF75C
:10183000880F9695879597F90895990F0008550F89
:10184000AA0BE0E8FEEF16161706E807F907C0F046
:1018500012161306E407F50798F0621B730B840B4E
:10186000950B39F40A2661F0232B242B252B21F428
:1018700008950A2609F4A140A6958FEF811D811DC8
:10188000089597F99F6780E870E060E008959FEF02
:1018900080EC089500240A94161617061806090607
:1018A000089500240A9412161306140605060895D6
:1018B000092E0394000C11F4882352F0BB0F40F45E
:1018C000BF2B11F460FF04C06F5F7F4F8F4F9F4F9E
:1018D000089557FD9058440F551F59F05F3F71F020
:1018E0004795880F97FB991F61F09F3F79F0879587
:1018F0000895121613061406551FF2CF4695F1DF10
:1019000008C0161617061806991FF1CF869571059F
:10191000610508940895E894BB2766277727CB01D3
:1019200097F908950E941D0C08F48FEF08950E9406
:10193000AA0C0C94580C0E944A0C38F00E94510CCE
:1019400020F0952311F00C94410C0C94470C1124B9
:101950000C948C0C0E94690C70F3959FC1F3950F49
:1019600050E0551F629FF001729FBB27F00DB11D23
:10197000639FAA27F00DB11DAA1F649F6627B00DB3
:10198000A11D661F829F2227B00DA11D621F739F9C
:10199000B00DA11D621F839FA00D611D221F749FAA
:1019A0003327A00D611D231F849F600D211D822FF1
:1019B000762F6A2F11249F5750409AF0F1F0882318
:1019C0004AF0EE0FFF1FBB1F661F771F881F915045
:1019D0005040A9F79E3F510580F00C94410C0C94A7
:1019E0008C0C5F3FE4F3983ED4F38695779567952A
:1019F000B795F795E7959F5FC1F7FE2B880F911D6F
:101A00009695879597F908950E941D0C880B990B60
:101A10000895A1E21A2EAA1BBB1BFD010DC0AA1F2F
:101A2000BB1FEE1FFF1FA217B307E407F50720F047
:101A3000A21BB30BE40BF50B661F771F881F991FC2
:101A40001A9469F760957095809590959B01AC010B
:101A5000BD01CF010895EE0FFF1F0590F491E02D19
:101A6000099481E090E0F8940C94360DF894FFCF3F
:101A700000000000B70120014F01FE0180015E015E
:101A800072016E616E00696E66006F7666004F4689
:101A900046004F4E0041726475696E6F202B2044E2
:101AA00053313842323020546865726D6F737461FF
:101AB0007420772F20687973746572657369732059
:101AC000616E64207365747461626C652074687201
:101AD0006573686F6C64000D0A00536574706F69FC
:101AE0006E743A200020646567432C2000437572B1
:101AF00072656E742054656D70657261747572657F
:101B00003A2000486561746572207374617475735E
:041B10003A20000077
:00000001FF
